:04000000CFEF00F04E
:1000080000C016F001C015F0F2A402D0F2BAF294C2
:100018009EA231D09E9220A80ED0010E2524006EFB
:10002800000E2620016E00C025F001C026F02550E4
:100038002610D8B4209827A80ED0010E2C24006EC4
:10004800000E2D20016E00C02CF001C02DF02C50A8
:100058002D10D8B427982EA80ED0010E3324006E88
:10006800000E3420016E00C033F001C034F033506C
:100078003410D8B42E9816C000F015C001F0110045
:0A00880017C0E9FF18C0EAFF1200DC
:100092001B6A200E006E000E016E0E0E0024196EF9
:0E00A200000E01201A6E209C279C2E9C12003E
:1000B0001B92200E016E000E026E1D6A01C0E9FF48
:1000C00002C0EAFFEECF00F000BC28D0368C3686A6
:1000D000010E0124E16E000E0220E26E37C0E6FF41
:1000E00038C0E6FF39C0E6FF3AC0E6FF050E01243E
:1000F000E16E000E0220E26EE66AE66A01C0E1FFF0
:1001000002C0E2FF36C0E6FF0250181802E11750A5
:10011000011802E136C035F01B9209D0070E012606
:10012000000E02221D2A030E1D5CC8E31B82120072
:10013000ABDFEECF35F00500EE50FD6EEE50FE6EFB
:08014000EE50FF6E12001200E8
:10014800FF0E806EFF0E816E926A936AF19E826A3C
:10015800946A836A956A846A966A4E0ECA6E9D820C
:0C016800FA0ECB6EC00EF26EF28C12008C
:0E0174008050010F006E00C080FFFAD712000D
:0E0182008150010F006E00C081FFFAD71200FD
:0E0190008250010F006E00C082FFFAD71200ED
:10019E00D4DF78DF366A740E376E010E386E000EBD
:1001AE00396E000E3A6E7DDF366A820E376E010EA4
:1001BE00386E000E396E000E3A6E73DF366A900E90
:1001CE00376E010E386E000E396E000E3A6E69DF14
:1001DE00F28ED0BEF28C1B981B86080E1C6E19C0B8
:1001EE0017F01AC018F0200E006E000E016E0E0EE3
:1001FE000024026E000E0120036E0350185C02E113
:10020E000250175C05E3200E176E000E186E0AD012
:10021E00070E1724006E000E1820016E00C017F096
:10022E0001C018F017C0E9FF18C0EAFF010E006EFA
:10023E00350EE16E000EE26EEECFE6FF0006FCE13B
:10024E0035AC03D035BE01D001D02ED035C000F074
:10025E00070E001600C01DF01C501D5C01E324D0DB
:10026E0035B60CD05EDF09DFD70EEF16280E35142B
:10027E00006E0050EF121BB601D03BD035A803D054
:10028E0035BA01D011D035A60FD01B8817C01EF07D
:10029E0018C01FF035C000F0070E001600C01CF08D
:1002AE001C50000A01E107D018501A1802E119502B
:1002BE00171801E098D71BA81CD01B961EC017F06C
:1002CE001FC018F017C019F018C01AF017C0E9FFB8
:1002DE0018C0EAFF010E006E350EE16E000EE26EE2
:1002EE00EECFE6FF0006FCE135AC03D035BE01D003
:0602FE00B9D771D7FFD74C
:020000040030CA
:0D000100260F0EFF0181FF0FC00FE00F4022
:00000001FF
