:020000008C284A
:10000800DF00030E8301A7000A08A6008A010B1D62
:10001800432883120B118514A80169205008D200C7
:100028005108D300D30CD20CD313D30CD20CD31356
:10003800D30CD20CD3135208A0005308A10080306F
:100048005306D00080305002031D2C286430520221
:1000580003184328A201A30180302106D000803074
:1000680023065002031D3A2822082002031C4128B7
:100078000000A20A0319A30A302883128510260853
:0C0088008A00270E8300DF0E5F0E0900C7
:0C00940007308312DD00DD0B4D28080052
:0C00A000831225088A0024088200080052
:1000AC0050208A110A128000840AA40A0319A50A96
:0800BC00D003031D56280800C3
:0E00C400D230831681008B170B178B160800A5
:1000D200C33083129F05F0309F05F03083169F04D2
:1000E20083129F172808D000D00D5010D00D501049
:1000F20050089F041F144A209F149F1C822800004E
:100102007E281F101E08D100D00183161E08D004BD
:060112000030D1040800DA
:1001180062209F111F119F1085108312851093284C
:02012800942819
:02400E00D431AB
:00000001FF
