:040000000FEF0CF002
:1000080000C016F001C015F0F5CF1AF0F8CF17F0C0
:10001800F7CF18F0F6CF19F0F2A498D1630ED76E87
:10002800C00ED66E3950010A03E1DEEC0BF0396AD6
:100038003B0E0001606FF4EC0BF000C06EF00001A5
:100048006D6B3C0E606FF4EC0BF0005000016D25F9
:100058002D6E000E6E212E6E3F0E606FF4EC0BF0CD
:1000680000C06EF000016D6B400E606FF4EC0BF099
:10007800005000016D25316E000E6E21326E2DC0CC
:1000880000F02EC001F050EC08F000C06DF001C087
:100098006EF002C06FF003C070F031C000F032C0E3
:1000A80001F050EC08F000C004F001C005F002C0F7
:1000B80006F003C007F06DC000F06EC001F06FC01D
:1000C80002F070C003F0D6EC06F000C071F001C079
:1000D80072F002C073F003C074F0CBEC0AF0E10ECA
:1000E800046E2E0E056E650E066E840E076E51ECBC
:1000F80005F0000E046E000E056E340E066E850EB9
:10010800076E54DA00C027F001C028F002C029F0B9
:1001180003C02AF09A0E046E990E056E190E066E2B
:100128007A0E076E51EC05F000C06DF001C06EF05C
:1001380002C06FF003C070F0580E006E390E016EE9
:10014800340E026E7A0E036E5CC004F05DC005F0DA
:100158005EC006F05FC007F051EC05F06DC004F01A
:100168006EC005F06FC006F070C007F01FDA00C05F
:100178006DF001C06EF002C06FF003C070F0810E28
:10018800006E260E016E420E026E7A0E036E58C085
:1001980004F059C005F05AC006F05BC007F051ECF6
:1001A80005F06DC004F06EC005F06FC006F070C0B9
:1001B80007F0FCD900C06DF001C06EF002C06FF00E
:1001C80003C070F0810E006E260E016E420E026EA4
:1001D8007A0E036E65C004F066C005F067C006F0CD
:1001E80068C007F051EC05F06DC004F06EC005F072
:1001F8006FC006F070C007F0D9D900C06DF001C01B
:100208006EF002C06FF003C070F0580E006E390E29
:10021800016E340E026E7A0E036E61C004F062C085
:1002280005F063C006F064C007F051EC05F06DC03E
:1002380004F06EC005F06FC006F070C007F0B6D9C4
:1002480000C06DF001C06EF002C06FF003C070F026
:100258009A0E006E990E016E190E026E7A0E036EDA
:1002680054C004F055C005F056C006F057C007F05A
:1002780051EC05F06DC004F06EC005F06FC006F0DB
:1002880070C007F093D9EC0E046E510E056E780E0F
:10029800066E800E076E51EC05F000C042F001C0FA
:1002A80043F002C044F003C045F000C071F001C043
:1002B80072F002C073F003C074F0460E756F000E42
:1002C800766FBDEC08F0460E716F000E726FA3ECEE
:1002D80008F00D0E7E6F99EC06F00A0E00017E6F95
:1002E80099EC06F08380030E0C6E970E0D6E0D2EA2
:1002F800FED70C2EFCD700000000839027C05CF0CE
:1003080028C05DF029C05EF02AC05FF027C058F011
:1003180028C059F029C05AF02AC05BF027C065F000
:1003280028C066F029C067F02AC068F027C061F0CD
:1003380028C062F029C063F02AC064F027C054F0D6
:1003480028C055F029C056F02AC057F0F2941AC0B8
:10035800F5FF17C0F8FF18C0F7FF19C0F6FF16C061
:0803680000F015C001F01100C6
:100370000B820BAEC2EF01F00368026801680068EF
:080380000A360232FF0E1200E2
:0E038800026A016A006A086A036A000E120027
:100396000B840BAED6EF01F0010E036E026A016A02
:0A03A600006A0A360232FF0E120050
:0803B0000AAE029E000E1200CD
:1003B800C7B409D01F0EC514016E0150000A03E12D
:0A03C800010E006E01D0006A120061
:1003D2000CB02BEF02F00CA2D1EF02F00E6A000E6D
:1003E200026442EF02F0F00E0214D8A40DEF02F004
:1003F200023A01380F0B02260138F00B016E003869
:100402000F0B01260038F00B006E08380F0B002688
:100412000838F00B086E0E84D89002BE26EF02F068
:1004220008360036013602360E2A02BE26EF02F0E8
:1004320008360036013602360E2A02BE26EF02F0D8
:1004420008360036013602360E2A0E500364C7EF14
:1004520002F0035E0BBC08AECCEF02F0D880800E37
:1004620008640030000E002201220222D8A0CCEF44
:1004720002F0023201320032034AD1EF02F0CCEF35
:1004820002F001C002F000C001F008C000F0086AEA
:10049200000E0E86026479EF02F0F00E0214D8A468
:1004A20061EF02F0023A01380F0B02260138F00B1D
:1004B200016E00380F0B01260038F00B006E0E841F
:1004C200D89002BE26EF02F00036013602360E2A1E
:1004D20002BE26EF02F00036013602360E2A02BEB6
:1004E20026EF02F00036013602360E2A26EF02F01F
:1004F20001C002F000C001F0006A000E0E960E88E4
:100502000264A6EF02F0F00E0214D8A491EF02F0FA
:10051200023A01380F0B02260138F00B016E0E84ED
:10052200D89002BE26EF02F0013602360E2A02BE33
:1005320026EF02F0013602360E2A02BE26EF02F044
:10054200013602360E2A26EF02F001C002F0016ADD
:10055200000E0E860264D6EF02F0F00E0214D8A44A
:10056200B5EF02F0023A0E84D89002BE26EF02F0F6
:1005720002360E2A02BE26EF02F002360E2A02BE12
:1005820026EF02F002360E2A26EF02F0010E0C6E62
:1005920001DFD9EF02F0020E0C6E09DFD9EF02F093
:1005A200040E0C6EE4DED9EF02F0080E0C6EEBDEE8
:0205B200120035
:1005B400025006180E6E086A096A0B6A0350076433
:1005C400CDEF03F006500A6E068E028E03500B6EBA
:1005D4000750036E000E0B641DEF03F00B50075E13
:1005E400D8B4BEEF03F0070E07648CEF03F0075E88
:1005F40000C008F001C000F002C001F0026A074E1A
:10060400BEEF03F0076461EF03F0075E00C008F07B
:1006140001C000F0016A074EBEEF03F007643FEF2C
:1006240003F0075E00C008F0006A074EBEEF03F057
:10063400076426EF03F00AC002F005C001F004C00D
:1006440000F0086AE7EF04F0030E076431EF03F0EB
:10065400075E08380F0B086E074EBEEF03F0D89004
:100664000832074EBEEF03F0D8900832074EBEEFB3
:1006740003F0D8900832BEEF03F0030E076450EF86
:1006840003F0075E08380F0B086E0038F00B0826DD
:1006940000380F0B006E074EBEEF03F0D890003207
:1006A4000832074EBEEF03F0D89000320832074EEE
:1006B400BEEF03F0D89000320832BEEF03F0030E11
:1006C400076478EF03F0075E08380F0B086E0038F4
:1006D400F00B082600380F0B006E0138F00B0026D3
:1006E40001380F0B016E074EBEEF03F0D8900132B4
:1006F40000320832074EBEEF03F0D89001320032C8
:100704000832074EBEEF03F0D890013200320832AF
:10071400BEEF03F0030E0764A9EF03F0075E083889
:100724000F0B086E0038F00B082600380F0B006E14
:100734000138F00B002601380F0B016E0238F00B64
:10074400012602380F0B026E074EBEEF03F0D8905D
:100754000232013200320832074EBEEF03F0D89065
:100764000232013200320832074EBEEF03F0D89055
:100774000232013200320832096A000E0EAEB2EFC4
:1007840004F0081E001E011E021E082A0022012277
:100794000222B2EF04F00750D8A4D3EF03F0E7EF3E
:1007A40004F0096A02C00AF0028E068E0750035C48
:1007B400076ED8B4A5EF04F0070E076473EF04F0D6
:1007C400075E0450096E0550046E0650056E066AF5
:1007D400074EA5EF04F0070E076448EF04F0075E28
:1007E4000450096E0550046E056A074EA5EF04F027
:1007F400070E076426EF04F0075E0450096E046ACE
:10080400074EA5EF04F0070E07640DEF04F00AC0CD
:1008140002F0E7EF04F0030E076418EF04F0075E3C
:1008240009380F0B096E074EA5EF04F0D890093272
:10083400074EA5EF04F0D8900932074EA5EF04F057
:10084400D8900932A5EF04F0030E076437EF04F0E3
:10085400075E09380F0B096E0438F00B09260438BB
:100864000F0B046E074EA5EF04F0D8900432093242
:10087400074EA5EF04F0D89004320932074EA5EFD5
:1008840004F0D89004320932A5EF04F0030E076493
:100894005FEF04F0075E09380F0B096E0438F00BA4
:1008A400092604380F0B046E0538F00B04260538AE
:1008B4000F0B056E074EA5EF04F0D89005320432F5
:1008C4000932074EA5EF04F0D890053204320932FC
:1008D400074EA5EF04F0D890053204320932A5EF93
:1008E40004F0030E076490EF04F0075E09380F0B61
:1008F400096E0438F00B092604380F0B046E053812
:10090400F00B042605380F0B056E0638F00B052690
:1009140006380F0B066E074EA5EF04F0D89006328A
:10092400053204320932074EA5EF04F0D89006329E
:10093400053204320932074EA5EF04F0D89006328E
:10094400053204320932086A000E0EAEB2EF04F02A
:10095400091E041E051E061E092A0422052206225B
:100964000950082604500022055001220650022294
:100974000EBEC9EF04F0D8A0D8EF04F00232013261
:1009840000320832033ED8EF04F0E2EF04F0D8B0AE
:10099400DDEF04F0000E081E001E011E021E082AD0
:1009A4000022012202220A7EDDEF04F0010E0C6E09
:1009B4000EDDE9EF04F0020E0C6E09DDE9EF04F040
:1009C400040E0C6ED3DCE9EF04F0000E0C6E120082
:1009D4000A6A0350D8A40A800750D8A40A820A508D
:1009E400D8B44DEF05F0030AD8B406EF05F00AB009
:1009F40001EF05F006AE4BEF05F049EF05F002AE4E
:100A040049EF05F04BEF05F00250800B0A6E029E91
:100A14000650800B069E0A18D8B417EF05F00A504A
:100A2400D8B449EF05F04BEF05F00750035CD8B498
:100A340021EF05F0D8A03DEF05F043EF05F0065097
:100A4400025CD8B42BEF05F0D8A03DEF05F043EFDE
:100A540005F00550015CD8B435EF05F0D8A03DEFA2
:100A640005F043EF05F00450005CD8B44DEF05F0F9
:100A7400D8B043EF05F00A52D8B44BEF05F049EF74
:100A840005F00A52D8B449EF05F04BEF05F0D880D1
:0E0A94001200D8901200D880D88412001200F0
:100AA200086A096A000E07620364D6EF05F0025075
:100AB20006180A6E075003267E0ED8A067EF05F0CF
:100AC200035ED8B0DBEF05F06BEF05F0035ED8A054
:100AD200E0EF05F0028E068E02C00EF001C00BF0B0
:100AE20000C00DF000500402F4CF0CF001500502DA
:100AF200F4CF00F0F3CF08F00402F3500C26F450C8
:100B02000822000E00220D500502F3500C26F4506C
:100B12000822000E002202500402F3500826F4506C
:100B2200002202500502016A000E0122F350002643
:100B3200F45001220D500602F3500826F450002210
:100B4200026A000E012202220B500602F350002616
:100B5200F4500122000E02220E500602F35001262A
:100B6200F450022202BEBEEF05F00836003601360E
:100B720002360306D8B4E0EF05F0D1EF05F0D880D5
:100B8200800E08640030000E002201220222D8A04A
:100B9200D1EF05F0023201320032034ADBEF05F0F9
:100BA2000AAE029E000EE3EF05F0010EC4EC01F066
:100BB200E3EF05F0020EB8EC01F0E3EF05F0040EEE
:060BC200CBEC01F0120073
:080BC8000B6A0B86FF0E120000
:100BD0009E968BC0C9FFC7A401D0FDD79EB601D099
:100BE000FDD7C5BC02D0006A03D0C584020E006EDA
:020BF0001200F1
:100BF20000018B6B8C6B8C51120802E18B518E08B9
:100C020009E3DCEC01F0005201E004D000018B4B5F
:100C12008C2BF1D70001120E8C5D02E18F0E8B5DE1
:100C220003E37B0E006E05D0C580C5A001D0FDD7C1
:040C3200006A120042
:040C3600C58412005F
:100C3A0085C000F086C001F0000E000186BFFF0EDD
:100C4A00026E036E00360090013602360336003615
:100C5A00009001360236033682510024F66E835123
:100C6A000120F76E84510220F86E0900F5CF87F053
:100C7A000900F5CF88F00900F5CF89F00900F5CF12
:100C8A008AF08551861147E07EC000F07FC001F0EE
:100C9A0080C002F081C003F087C004F088C005F06C
:100CAA0089C006F08AC007F0F7DE010E855F000EE4
:100CBA00865B85C004F086C005F0000E86BFFF0E75
:100CCA00066E076E04360490053606360736043675
:100CDA00049005360636073682510424F66E83518F
:100CEA000520F76E84510620F86E0900F5CF04F04E
:100CFA000900F5CF05F00900F5CF06F00900F5CF98
:100D0A0007F053DC00C087F001C088F002C089F008
:100D1A0003C08AF0B6D787C000F088C001F089C046
:080D2A0002F08AC003F0120080
:0E0D3200ACB202D00000FCD77EC0ADFF1200B4
:100D4000086A080E0C6E003408360450085ED8B0ED
:0E0D500002D00826D89000360C2EF5D71200DF
:100D5E007EC004F07FC005F004C002F005C003F0B1
:100D6E00044A052A80C000F081C001F00001804BCA
:100D7E00812B00C0E9FF01C0EAFF02C0E1FF03C002
:100D8E00E2FFEECFE6FF02C0E9FF03C0EAFFEE523C
:0E0D9E0001E0E2D77EC000F07FC001F012003D
:100DAC000450000A12E10550000A0FE10650000A37
:100DBC000CE10750000A09E1FF0E006EFF0E016EF8
:100DCC007F0E026EFF0E036EA7D0086A096A0750E9
:100DDC00D8B481EF07F00350D8B485EF07F0025078
:100DEC0006180A6E028E068E0E6A02C008F001C04A
:100DFC000CF000C00DF004500D5E0550D8A0053C61
:100E0C000C5E0650D8A0063C085E086A0C6A0D6A97
:100E1C00D8A018EF07F0D890023201320032083215
:100E2C00010E0E6E0750035ED8A025EF07F07E0E64
:100E3C000E240326D8B08AEF07F02BEF07F07E0EB6
:100E4C000E240326D8A08FEF07F0180E0B6E0D366C
:100E5C000C3608360036013602360E360450005E6B
:100E6C000550D8A0053C015E0650D8A0063C025E99
:100E7C0006340E120EA046EF07F00D8051EF07F06E
:100E8C00045000260550D8B0053C01260650D8B0B9
:100E9C00062802260D900B2E2DEF07F077EF07F0AA
:100EAC00D8900036013602360E360450005E0550DE
:100EBC00D8A0053C015E0650D8A0063C025E063464
:100ECC000E10010B0D26D8B00C2AD8B4082AD8A4C1
:100EDC0077EF07F008320C320D32032AD8B48AEFC0
:100EEC0007F00AAE089E0850026E0C50016E0D50B1
:100EFC00006E92EF07F0010E61DE92EF07F0020E2A
:100F0C00C4EC01F092EF07F0040EB8EC01F092EF94
:0A0F1C0007F0080ECBEC01F0120004
:080F2600067EDAEC02F0120075
:0A0F2E00C582C5A201D0FDD7120054
:100F38009E96C5869EB601D0FDD7C9CF01F00001A7
:100F48007E51000A02E1C58A01D0C59A9E96C588DD
:0C0F58009EB601D0FDD701C000F01200D1
:100F64000C6A0E6A0250D8A4CBEF07F001C002F05D
:100F740000C001F0006A0E860250D8A4CBEF07F03F
:100F840001C002F0016A0E960E880250D8B4DDEF5B
:100F940007F00E50035ED8A4D8A0E3EF07F0D89072
:100FA40002BEE9EF07F0003601360236032ED2EF17
:100FB40007F0E3EF07F0010E0C6EC4EC01F0EDEF67
:100FC40007F0020E0C6ECBEC01F0EDEF07F0040E0F
:080FD4000C6ED8EC01F01200D4
:100FDC0003500718D8A402EF08F002500618D8A442
:100FEC0002EF08F001500518D8A402EF08F00050E9
:0E0FFC000418D8B4D8841200D8941200120041
:10100A00F3DD1CC08BF0DFDD7EC08BF0DCDD7FC042
:10101A008BF0D9DD0BDE820E0C6EDD0E0D6E0D2E01
:0C102A00FED70C2EFCD7000000001200C6
:10103600046A056A066A076A7EC000F07FC001F08E
:1010460080C002F081C003F0C2DC010ED8B0000EF1
:10105600006E00520EE0000E00017E19006E000EBA
:101066007F19016E800E8019026E000E8119036EC3
:1010760008D07EC000F07FC001F080C002F081C0C1
:0410860003F0120061
:10108A00939093928A908A9293809382C79EC79CE8
:06109A00380EC66E1200C4
:1010A00000C008F00150006E016A026A036A0B6A10
:1010B0000C6A016A026A036A960E036E0A6A00AE3F
:1010C00068EF08F0081E001E082AD8B4002A0A8E0D
:1010D00000C001F008C000F0086A026A43DF120095
:1010E0000900F5CFE6FF0006FBE10106F9E1120079
:1010F000320E356E0D0E366E7E0E376E000E386E69
:10110000FF0E3E6EFF0E3F6E000E406E000E416EF3
:10111000FF0E3A6EFF0E3B6E000E3C6E000E3D6EF3
:10112000FF0E316EFF0E326E000E336E000E346E07
:10113000AC8A900EAB6E948E949C9EAA03D0AECFD8
:0611400000F0FBD71200D5
:101146000001736B71C0E9FF72C0EAFFEECF60F079
:101156006051000A0EE060C07EF0E8DD0001732BEE
:1011660073517125E96E000E7221EA6EEECF60F0C2
:04117600EFD712009D
:10117A0000017C6B7D6B71C078F072C079F073C02E
:10118A007AF074C07BF07B51FF0A08E17A51FF0ABA
:10119A0005E17951FF0A02E17851FF0A0CE175C0B5
:1011AA007EF076C07FF01D0E806F000E816FD2DD5B
:1011BA00030E006EEAD1010E606F7AAF0ED0800E78
:1011CA007A19006E00C07AF0602B75C0E1FF76C014
:1011DA00E2FF2D0EE66E754B762B000E006E7B1924
:1011EA0008E100507A1905E10050791902E17851B5
:1011FA00000A0BE175C07EF076C07FF0250E806F85
:10120A00000E816FA7DD006AC0D17B51FF0A08E199
:10121A007A51000A05E17951000A02E17851000A7F
:10122A000CE175C07EF076C07FF0210E806F000E53
:10123A00816F90DD60C000F0A8D1000E046E000E30
:10124A00056E000E066E7F0E076E78C000F079C03C
:10125A0001F07AC002F07BC003F0EAEC04F0010E60
:10126A00D8B0000E006E00521BE078C000F079C0C2
:10127A0001F07AC002F07BC003F0000E046E000E8B
:10128A00056E200E066E820E076E06DC00C078F030
:10129A0001C079F002C07AF003C07BF07D07CDD798
:1012AA00000E046E000E056E200E066E820E076E8C
:1012BA0078C000F079C001F07AC002F07BC003F078
:1012CA00EAEC04F0000ED8B0010E006E00521CE0E9
:1012DA0078C000F079C001F07AC002F07BC003F058
:1012EA00CD0E046ECC0E056E4C0E066E7B0E076E8E
:1012FA0051EC05F000C078F001C079F002C07AF034
:10130A0003C07BF07D2BCCD7FF0E7815086EFF0E3D
:10131A007915096E7F0E7A150A6E000E7B150B6E13
:10132A0008C004F009C005F00AC006F00BC007F0B7
:10133A0004360490053606360736000E7815006E18
:10134A00000E7915016E000E7A15026EFF0E7B15DE
:10135A00036E00C078F001C079F002C07AF003C0D1
:10136A007BF004507811006E05507911016E065019
:10137A007A11026E07507B11036E00C078F001C02B
:10138A0079F002C07AF003C07BF07F0E7B5D006EBD
:10139A0000C077F0010E7B6F00C004F078C000F047
:1013AA0079C001F07AC002F07BC003F0045007E074
:1013BA0000360090013602360336FF0FF8D700C018
:1013CA0078F001C079F002C07AF003C07BF075C0F2
:1013DA00E1FF76C0E2FF7B51300FE66E754B762B4C
:1013EA00800E7D19006E800E010A005C08E3800EF3
:1013FA00060A006E800E7D19005C01E30AD075C0F2
:10140A00E1FF76C0E2FF2E0EE66E754B762B010EDB
:10141A007C6F060E776F7751000A54E07B6B78C0B9
:10142A0000F079C001F07AC002F07BC003F0003608
:10143A000090013602360336003600900136023635
:10144A00033678510026795101227A5102227B51C2
:10145A00032200C078F001C079F002C07AF003C01C
:10146A007BF078C000F079C001F07AC002F07BC04E
:10147A0003F00036009001360236033600C078F0D9
:10148A0001C079F002C07AF003C07BF075C0E1FFB9
:10149A0076C0E2FF7B51300FE66E754B762B7C519E
:1014AA00000A0EE17D077D51000A0AE175C0E1FFDD
:1014BA0076C0E2FF2E0EE66E754B762B010E7C6F20
:1014CA007707A9D7FF0E7525E96EFF0E7621EA6E1A
:1014DA00EE50300A05E1010E755F000E765BF2D719
:1014EA00FF0E7525E96EFF0E7621EA6EEE502E0A82
:1014FA0004E1010E755F000E765B7D51000A3FE044
:10150A0075C0E1FF76C0E2FF650EE66E754B762B7D
:10151A00800E7D19006E800E000A005C0BE275C019
:10152A00E1FF76C0E2FF2D0EE66E754B762B7D51FC
:10153A0000087D6F7DC077F07D5109080FE20A0E21
:10154A00046E77C000F0A0EC06F075C0E1FF76C02B
:10155A00E2FF0050300FE66E754B762B0A0E046ED2
:10156A0077C000F0A0EC06F008C000F075C0E1FFFB
:10157A0076C0E2FF0050300FE66E754B762B75C0D1
:0C158A00E1FF76C0E2FFE66A006A120092
:1015960071C07EF072C07FF073C080F074C081F0BD
:1015A60047DD00C075F001C076F002C077F003C0D9
:1015B60078F0046A056A066A076A0DDD010ED8A48A
:1015C600000E006E005205E0006A016A026A036AB4
:1015D600F1D075C004F076C005F077C006F078C08B
:1015E60007F0000E006E000E016E000E026E7F0EFA
:1015F600036EEAEC04F0010ED8B0000E006E00C0D7
:1016060060F000521AE075C004F076C005F077C0AD
:1016160006F078C007F0000E006E000E016E000E98
:10162600026E7F0E036ED6EC06F000C075F001C0A8
:1016360076F002C077F003C078F075C000F076C08F
:1016460001F077C002F078C003F075C004F076C0F0
:1016560005F077C006F078C007F051EC05F000C041
:1016660079F001C07AF002C07BF003C07CF000C0C4
:101676007EF001C07FF002C080F003C081F0520E00
:101686000001826F180E836F000E846F050E856F42
:10169600000E866F1DEC06F075C004F076C005F0EE
:1016A60077C006F078C007F051EC05F000C075F081
:1016B60001C076F002C077F003C078F079C07EF002
:1016C6007AC07FF07BC080F07CC081F06A0E826FAA
:1016D600180E836F000E846F040E856F000E866FE2
:1016E6001DEC06F000C004F001C005F002C006F0D3
:1016F60003C007F075C000F076C001F077C002F0B5
:1017060078C003F0D6EC06F000C075F001C076F0A4
:1017160002C077F003C078F0000160531AE075C08C
:1017260004F076C005F077C006F078C007F0DB0E4F
:10173600006E0F0E016E490E026E7F0E036E93EC65
:1017460007F000C075F001C076F002C077F003C064
:1017560078F0046A056A066A076A71C000F072C00A
:1017660001F073C002F074C003F0EAEC04F0010E5D
:10177600D8B0000E006E00520DE0000E7519006E16
:10178600000E7619016E800E7719026E000E78191A
:10179600036E08D075C000F076C001F077C002F085
:1017A60078C003F000C075F001C076F002C077F093
:0617B60003C078F01200F0
:1017BC006B0E00017E6F800E7F6F21DC6B0E0001C3
:1017CC007E6F7F6B1CDC1B0E00017E6F7F6B17DC4A
:0C17DC001C0E00017E6F7F6B12DC1200FF
:1017E800F9EC05F01CC08BF0E8EC05F060C08BF05C
:1017F800E8EC05F097EC07F01BC08BF0E8EC05F07F
:1018080000017E6B9CEC07F000C071F01BEC06F049
:0618180071C000F0120097
:10181E0045EC0CF095908390C186C184C182C18045
:10182E00D38CD38AD388330EAF6EAC845ADC0A0EB7
:10183E00C86E24DCA00EF26E880ED56E010E396EC7
:04184E00FFD7FFD7EA
:10188A0010EE1BF00C0E006E010E016E7E0EF66E4F
:0E189A00180EF76E000EF86E70EC08F01200DB
:10185200063C04847D9F6A845C900184604D3B81D8
:0818620051EC477CDE8D9F76FE
:10186A00063C0484C0590B8574044484F99B4F8256
:04187A000000007FEB
:01187E00D198
:01187F00D098
:041880004E614E0067
:04188400494E460083
:0218880030002E
:020000040030CA
:0E000000000B1F1EFF8381FF0FC00FE00F409B
:00000001FF
