:0400000046EF00F0D7
:08000800F2A400D0F2941100F3
:10001000FF0E156EFF0E166EFF0E176EFF0E186E9A
:10002000FF0E196EFF0E1A6E000E1B6E000E1C6E78
:10003000FF0E216EFF0E226E000E236E000E246E48
:10004000FF0E1D6EFF0E1E6E000E1F6E000E206E48
:10005000AC8A900EAB6E948E949C9EAA03D0AECFC9
:0600600000F0FBD71200C6
:10006600939093928A908A9293809382C79EC79C1C
:06007600380EC66E1200F8
:10007C000900F5CFE6FF0006FBE10106F9E11200ED
:10008C0095908390C186C184C182C180190EAF6ED8
:10009C00AC84B8DF780EC86EE0DF83901F0E0B6E59
:1000AC00710E0C6E1E0E0D6E0D2EFED70C2EFCD787
:1000BC000B2EFAD7000083801F0E0B6E710E0C6E88
:1000CC001E0E0D6E0D2EFED70C2EFCD70B2EFAD756
:0600DC000000E3D7FFD78E
:020000040030CA
:0E000000000E1F1EFF8381FF0FC00FE00F4098
:00000001FF
