:0400000055EF06F0C2
:1000080000C01EF001C01DF002C01CF003C01BF0B0
:1000180004C01AF005C019F008C018F009C017F09C
:100028000AC016F00BC015F0E1CF23F0E2CF24F0A0
:10003800E9CF21F0EACF22F0F3CF1FF0F4CF20F080
:10004800A1A262D0440EB36E800EB26E0001916B15
:10005800040E915D58E291C000F0000E016E070E8B
:10006800046E000E056E47EC05F0390E0024E96EAB
:10007800000E0120EA6EEECF00F000A842D091C039
:1000880000F0000E016E070E046E000E056E47ECC0
:1000980005F0390E0026000E0122050E0024026E1E
:1000A800000E0120036E02C0E9FF03C0EAFF010E43
:1000B800EE24006E000EEE20016E02C0E1FF03C0C8
:1000C800E2FF00C0E6FF01C0E6FF02C0E9FF03C08F
:1000D800EAFFEECF00F0EECF01F00050011011E181
:1000E80091C000F0000E016E070E046E000E056E42
:1000F80047EC05F0390E0024E16E000E0120E26E97
:10010800E698912BA5D7A1921FC0F3FF20C0F4FF5A
:100118001EC000F01DC001F01CC002F01BC003F09F
:100128001AC004F019C005F018C008F017C009F08B
:1001380016C00AF015C00BF021C0E9FF22C0EAFF83
:0A01480023C0E1FF24C0E2FF110014
:080152000AAE029E000E12002D
:10015A000B820BAEB7EF00F0036802680168006813
:08016A000A360232FF0E1200FA
:100172000B840BAEC4EF00F0010E036E026A016A3B
:0A018200006A0A360232FF0E120076
:0A018C005EC0E9FF5FC0EAFF120049
:0E019600026A016A006A086A036A000E12001B
:1001A4000A6A0350D8A40A800750D8A40A820A50C5
:1001B400D8B435EF01F0030AD8B4EEEF00F00AB07A
:1001C400E9EF00F006AE33EF01F031EF01F002AEDB
:1001D40031EF01F033EF01F00250800B0A6E029E02
:1001E4000650800B069E0A18D8B4FFEF00F00A50A0
:1001F400D8B431EF01F033EF01F00750035CD8B409
:1002040009EF01F0D8A025EF01F02BEF01F0065023
:10021400025CD8B413EF01F0D8A025EF01F02BEF66
:1002240001F00550015CD8B41DEF01F0D8A025EF12
:1002340001F02BEF01F00450005CD8B435EF01F06D
:10024400D8B02BEF01F00A52D8B433EF01F031EFFC
:1002540001F00A52D8B431EF01F033EF01F0D88045
:0E0264001200D8901200D880D8841200120028
:10027200086A096A000E07620364BEEF01F00250C9
:1002820006180A6E075003267E0ED8A04FEF01F023
:10029200035ED8B0C2EF01F053EF01F0035ED8A0C5
:1002A200C6EF01F0028E068E02C00EF001C00BF006
:1002B20000C00DF000500402F4CF0CF00150050212
:1002C200F4CF00F0F3CF08F00402F3500C26F45000
:1002D2000822000E00220D500502F3500C26F450A5
:1002E2000822000E002202500402F3500826F450A5
:1002F200002202500502016A000E0122F35000267C
:10030200F45001220D500602F3500826F450002248
:10031200026A000E012202220B500602F35000264E
:10032200F4500122000E02220E500602F350012662
:10033200F450022202BEA6EF01F008360036013662
:1003420002360306D8B4C6EF01F0B9EF01F0D88047
:10035200800E08640030000E002201220222D8A082
:10036200B9EF01F0023201320032034AC2EF01F06A
:100372000AAE029E000EC8EF01F0010E0BDFC8EFBD
:1003820001F0020EE9DEC8EF01F0040EF1DE120008
:100392008DC004F08EC005F004C002F005C003F069
:1003A200044A052A8FC000F090C001F000018F4B73
:1003B200902B00C0E9FF01C0EAFF02C0E1FF03C0C9
:1003C200E2FFEECFE6FF02C0E9FF03C0EAFFEE5212
:0E03D20001E0E2D78DC000F08EC001F01200F5
:1003E00006003790D3DEFDCFECFFFECFECFFFFCF52
:1003F000ECFF5D965DB801D05D9A30A001D05D8ABA
:020400001200E8
:100402000C6A0E6A0250D8A41AEF02F001C002F080
:1004120000C001F0006A0E860250D8A41AEF02F062
:1004220001C002F0016A0E960E880250D8B42CEF79
:1004320002F00E50035ED8A4D8A031EF02F0D8909B
:1004420002BE36EF02F0003601360236032E21EFED
:1004520002F031EF02F0010E0C6E9CDE39EF02F079
:10046200020E0C6E85DE39EF02F0040E0C6E70DEA9
:02047200120076
:10047400086A080E0C6E003408360450085ED8B0C2
:0E04840002D00826D89000360C2EF5D71200B4
:0E049200ACB202D00000FCD78DC0ADFF12004E
:1004A0000001826B80C0E9FF81C0EAFFEECF60F0FF
:1004B0006051000A0EE060C08DF0EBDF0001822B7E
:1004C00082518025E96E000E8121EA6EEECF60F048
:0404D000EFD7120050
:1004D40000018B6B8C6B80C087F081C088F082C078
:1004E40089F083C08AF08A51FF0A08E18951FF0A22
:1004F40005E18851FF0A02E18751FF0A0CE184C03B
:100504008DF085C08EF0250E8F6F000E906F3FDF4B
:10051400030E006EE5D1010E606F89AF0ED0800E20
:100524008919006E00C089F0602B84C0E1FF85C08A
:10053400E2FF2D0EE66E844B852B000E006E8A19A9
:1005440008E10050891905E10050881902E187513A
:10055400000A0BE184C08DF085C08EF02D0E8F6FE4
:10056400000E906F14DF006ABBD18A51FF0A08E1C4
:100574008951000A05E18851000A02E18751000A05
:100584000CE184C08DF085C08EF0290E8F6F000EB3
:10059400906FFDDE60C000F0A3D1000E046E000E6B
:1005A400056E000E066E7F0E076E87C000F088C0D1
:1005B40001F089C002F08AC003F0F2DD010ED8B068
:1005C400000E006E00521BE087C000F088C001F0EE
:1005D40089C002F08AC003F0000E046E000E056E9E
:1005E400200E066E820E076E42DE00C087F001C048
:1005F40088F002C089F003C08AF08C07CED7000EC1
:10060400046E000E056E200E066E820E076E87C005
:1006140000F088C001F089C002F08AC003F0C0DD98
:10062400000ED8B0010E006E00521BE087C000F02F
:1006340088C001F089C002F08AC003F0CD0E046EB8
:10064400CC0E056E4C0E066E7B0E076E10DE00C0DF
:1006540087F001C088F002C089F003C08AF08C2BB7
:10066400CED7FF0E8715086EFF0E8815096E7F0E14
:1006740089150A6E000E8A150B6E08C004F009C0B5
:1006840005F00AC006F00BC007F0043604900536E6
:1006940006360736000E8715006E000E8815016EAB
:1006A400000E8915026EFF0E8A15036E00C087F0D6
:1006B40001C088F002C089F003C08AF00450871199
:1006C400006E05508811016E06508911026E0750A4
:1006D4008A11036E00C087F001C088F002C089F05F
:1006E40003C08AF07F0E8A5D006E00C086F0010EA2
:1006F4008A6F00C004F087C000F088C001F089C090
:1007040002F08AC003F0045007E00036009001367E
:1007140002360336FF0FF8D700C087F001C088F017
:1007240002C089F003C08AF084C0E1FF85C0E2FF03
:100734008A51300FE66E844B852B800E8C19006E27
:10074400800E010A005C08E3800E060A006E800E2B
:100754008C19005C01E30AD084C0E1FF85C0E2FF8C
:100764002E0EE66E844B852B010E8B6F060E866F64
:100774008651000A54E08A6B87C000F088C001F0FB
:1007840089C002F08AC003F00036009001360236B8
:1007940003360036009001360236033687510026B0
:1007A40088510122895102228A51032200C087F014
:1007B40001C088F002C089F003C08AF087C000F04D
:1007C40088C001F089C002F08AC003F000360090AE
:1007D40001360236033600C087F001C088F002C03B
:1007E40089F003C08AF084C0E1FF85C0E2FF8A512A
:1007F400300FE66E844B852B8B51000A0EE18C077B
:100804008C51000A0AE184C0E1FF85C0E2FF2E0E8C
:10081400E66E844B852B010E8B6F8607A9D7FF0EDE
:100824008425E96EFF0E8521EA6EEE50300A05E15B
:10083400010E845F000E855BF2D7FF0E8425E96EFE
:10084400FF0E8521EA6EEE502E0A04E1010E845F4C
:10085400000E855B8C51000A3DE084C0E1FF85C039
:10086400E2FF650EE66E844B852B800E8C19006EBC
:10087400800E000A005C0BE284C0E1FF85C0E2FF49
:100884002D0EE66E844B852B8C5100088C6F8CC02A
:1008940086F08C5109080EE20A0E046E86C000F040
:1008A400E7DD84C0E1FF85C0E2FF0050300FE66E53
:1008B400844B852B0A0E046E86C000F0D9DD08C077
:1008C40000F084C0E1FF85C0E2FF0050300FE66E07
:1008D400844B852B84C0E1FF85C0E2FFE66A006A91
:0208E400120000
:1008E6005D9A5EC0E1FF5FC0E2FFE69800018051BD
:1008F60081112EE0FF0E8019006E8151FF0A016EF4
:1009060000C080F001C081F0010E0024026E000ECE
:100916000120036E02C080F003C081F05EC000F0CB
:100926005FC001F0050E0024E16E000E0120E26EAC
:1009360002C0E6FF03C0E6FF5EC0E1FF5FC0E2FF64
:10094600E6865EC0E1FF5FC0E2FFE6885D885D8601
:0209560012008D
:100958000050086E0150006E016A026A036A0B6A51
:100968000C6A960E036E0A6A00C001F008C000F017
:08097800086A026A42DD120068
:06098000306A2EDD1200BA
:10098600379A01DC0001605307E05DA603D05D984D
:10099600EF9812005D8601D05D965DB805D05DAA20
:0C09A60003D05D86378A120006001200A4
:1009B200C6EC00F0FDCFECFFFECFECFFFFCFECFF6B
:0609C2005D860600120034
:1009C800920E0001616F040E626F8D0E636F000E50
:1009D800646FFF0E596EFF0E5A6E000E5B6E000EAE
:1009E8005C6EFF0E696FFF0E6A6F000E6B6F000E74
:1009F8006C6FFF0E656FFF0E666F000E676F000E5F
:100A0800686FAC8A900EAB6E948E949C9EAA03D0AD
:080A1800AECF00F0FBD7120085
:100A20000900F5CFE6FF0006FBE10106F9E112003F
:100A3000A7DF0000000E83B2010E0001606F60515D
:100A4000000A000ED8A4010E606F9DDFCD8098DFF4
:100A5000000083B202D0D88001D0D890000ED8B068
:100A6000010E0001606F6051000A000ED8A4010E53
:100A7000606F89DFCD90CFCF32F0316ACE50311226
:0E0A8000000E3212CF6ACE6A3884D2D712002E
:100A8E000B6A0A6A096A00500402F4CF09F0F3CF28
:100A9E0008F001500502F4CF0BF0F3CF0AF000502E
:100AAE000502F3500926F4500A22E86A0B2201507F
:100ABE000402F3500926F4500A22E86A0B2208C0F9
:100ACE0000F009C001F00AC002F00BC003F01200E2
:100ADE00010EB16EA192440EB36E800EB26EA08264
:060AEE00C00EF26E1200C2
:100AF40045DF0000020E38140001606F6051000AE7
:100B0400000ED8A4010E606F3CDF389283803B0E48
:100B14000D6E0D2EFED7000000008390E9D7120061
:100B24003792390E016E000E026E306A01C0E9FF81
:100B340002C0EAFFEECF00F000BC29D000017B8D9B
:100B44007B87010E0124E16E000E0220E26E7CC060
:100B5400E6FF7DC0E6FF7EC0E6FF7FC0E6FF050E30
:100B64000124E16E000E0220E26EE66AE66A01C02C
:100B7400E1FF02C0E2FF7BC0E6FF02505F1802E122
:100B84005E50011802E17BC05DF037921200070E3F
:100B94000126000E0222302A040E305CC7E337829D
:020BA40012003D
:100BA600C6EC00F0EECF5DF00500EE50FD6EEE50A7
:0A0BB600FE6EEE50FF6E12001200FA
:100BC000DFDE0000010E38140001606F6051000A82
:100BD000000ED8A4010E606FD6DE38903882D0DEC9
:100BE0000000040E38140001606F6051000A000E0E
:100BF000D8A4010E606FC7DE389431C000F032C057
:100C000001F0AADE700E046ECE0E056E080E066EA2
:100C1000790E076E39EC01F01E0E046EF10E056EB2
:100C2000380E066E7B0E076E39EC01F000C055F0F1
:100C300001C056F002C057F003C058F000C080F069
:100C400001C081F002C082F003C083F06D0E846F9A
:100C5000000E856F3FDC6D0E806F000E816F20DC13
:100C60000D0E8D6F16DC0A0E00018D6F12DCA8D7F9
:020C7000120070
:100C7200050E0001806F000E816F34DE99DE0000E8
:060C82003880F6D71200D5
:100C8800376A390E006E000E016E150E0024356E9F
:100C9800000E0120366E386A399C409C479C4E9C59
:020CA800120038
:100CAA0025EC07F017DFCD6A95909582190EAF6E85
:100CBA00AC8485DEE4DF00017B6B720E7C6F0C0E68
:100CCA007D6F000E7E6F000E7F6F27DF020E000120
:100CDA007B6FF40E7C6F0A0E7D6F000E7E6F000E26
:100CEA007F6F1BDF030E00017B6F300E7C6F0A0ED5
:100CFA007D6F000E7E6F000E7F6F0FDF010E000109
:100D0A007B6FC00E7C6F0B0E7D6F000E7E6F000E28
:100D1A007F6F03DF37983786080E2F6E35C05EF077
:100D2A0036C05FF0390E006E000E016E150E0024FB
:100D3A00026E000E0120036E03505F5C02E1025056
:100D4A005E5C05E3390E5E6E000E5F6E0AD0070E1A
:100D5A005E24006E000E5F20016E00C05EF001C0CE
:100D6A005FF05EC0E9FF5FC0EAFF010E006E5D0E34
:100D7A00E16E000EE26EEECFE6FF0006FCE15DAC2E
:100D8A0003D05DBE01D001D02FD05DC000F0070EA8
:100D9A00001600C030F02F50305C01E325D05DB65C
:100DAA000DD0FCDEC6EC00F0D70EEF16280E5D144F
:100DBA00006E0050EF1237B601D03BD05DA803D0C9
:100DCA005DBA01D011D05DA60FD037885EC033F06E
:100DDA005FC034F05DC000F0070E001600C02FF0AF
:100DEA002F50000A01E107D05F50361802E1355052
:100DFA005E1801E097D737A81CD0379633C05EF04B
:100E0A0034C05FF05EC035F05FC036F05EC0E9FF07
:100E1A005FC0EAFF010E006E5D0EE16E000EE26E2B
:100E2A00EECFE6FF0006FCE15DAC03D05DBE01D06B
:060E3A00B8D770D7FFD706
:100E4A0010EE25F00A0E006E010E016E400EF66ECF
:0E0E5A000E0EF76E000EF86E10EC05F0120092
:040E40004E614E00B1
:040E4400494E4600CD
:020E4800300078
:020000040030CA
:0E000000000C1F1EFF8381FF0FC00FE00F409A
:00000001FF
