:1000000016EF00F00000000000EF00F0000000001C
:0A0010000000000000000000F3D71C
:10001C000900F5CFE6FF0006FBE10106F9E112004D
:10002C00D38CD38AD38895908380060E0B6E130ED7
:10003C000C6EAD0E0D6E0D2EFED70C2EFCD70B2EAE
:10004C00FAD7000000008390060E0B6E130E0C6E98
:10005C00AD0E0D6E0D2EFED70C2EFCD70B2EFAD737
:08006C0000000000E1D7FFD7FE
:020000040030CA
:0E000000000B1F1EFF8381FF0FC00FE00F409B
:00000001FF
