:04000000F6EF01F026
:1000080000C01EF001C01DF002C01CF003C01BF0B0
:1000180004C01AF005C019F008C018F009C017F09C
:100028000AC016F00BC015F0E1CF23F0E2CF24F0A0
:10003800E9CF21F0EACF22F0F3CF1FF0F4CF20F080
:10004800F2A46ED0F294D10ED76E210ED66E656AE8
:10005800040E655C65E2090E006E000E016E65C057
:1000680004F0000E056E30D9370E0024E96E000E3C
:100078000120EA6EEECF00F000A850D0090E006E05
:10008800000E016E65C004F0000E056E1DD9370E16
:100098000026000E0122050E0024046E000E012029
:1000A800056E04C0E9FF05C0EAFF010EEE24006EEC
:1000B800000EEE20016E000EEE20026E000EEE2005
:1000C800036E04C0E1FF05C0E2FF00C0E6FF01C007
:1000D800E6FF02C0E6FF03C0E6FF04C0E9FF05C073
:1000E800EAFFEECF00F0EECF01F0EECF02F0EECF58
:1000F80003F0005001100210031010E1090E006E09
:10010800000E016E65C004F0000E056EDDD8370ED6
:100118000024E16E000E0120E26EE698652A98D769
:100128001FC0F3FF20C0F4FF1EC000F01DC001F087
:100138001CC002F01BC003F01AC004F019C005F07F
:1001480018C008F017C009F016C00AF015C00BF067
:1001580021C0E9FF22C0EAFF23C0E1FF24C0E2FF7B
:02016800110084
:0A016A0035C0E9FF36C0EAFF1200BD
:10017400FADFFDCFECFFFECFECFFFFCFECFF5B8699
:04018400060012005F
:100188005B9A35C0E1FF36C0E2FFE6986150621025
:100198006310641046E0FF0E6118006EFF0E6218CF
:1001A800016EFF0E6318026EFF0E6418036E00C026
:1001B80061F001C062F002C063F003C064F0010E98
:1001C8000024046E000E0120056E000E0220066E4B
:1001D800000E0320076E04C061F005C062F006C07F
:1001E80063F007C064F035C000F036C001F0050EBA
:1001F8000024E16E000E0120E26E04C0E6FF05C097
:10020800E6FF06C0E6FF07C0E6FF35C0E1FF36C0DF
:10021800E2FFE68635C0E1FF36C0E2FFE6885B888C
:040228005B861200DF
:10022C002B6A379C409C499C529C370E356E000EB5
:10023C00366E040E346E3404006E016A000E015AE0
:10024C00270E0024E16E000E0120E26E00C0E6FFD6
:10025C003404006E016A000E015A2F0E0024E16E68
:10026C00000E0120E26EE66A34063452E4E112001C
:10027C00880ED56ED10ED76E210ED66EF28EF28A06
:02028C0012005E
:10028E000900F5CFE6FF0006FBE10106F9E11200D9
:10029E0065DFEECF5BF00500EE50FD6EEE50FE6EAC
:0802AE00EE50FF6E1200120079
:1002B6008272E80E616E030E626E000E636E646EED
:0A02C60060DF55DF0000F4D71200DE
:1002D0000B6A0A6A096A00500402F4CF09F0F3CFEE
:1002E00008F001500502F4CF0BF0F3CF0AF00050F4
:1002F0000502F3500926F4500A22E86A0B22015045
:100300000402F3500926F4500A22E86A0B2208C0BE
:1003100000F009C001F00AC002F00BC003F01200A7
:1003200082780A0E616E000E626E636E646E2CDF60
:0803300021DF0000F5D71200E7
:100338002B92370E016E000E026E346A01C0E9FF7F
:1003480002C0EAFFEECF00F000BC2AD05C8C5C86CD
:10035800010E0124E16E000E0220E26E5DC0E6FF90
:100368005EC0E6FF5FC0E6FF60C0E6FF050E012441
:10037800E16E000E0220E26EE66AE66AE66AE66A66
:1003880001C0E1FF02C0E2FF5CC0E6FF0250361880
:1003980002E13550011802E15CC05BF02B9209D0F4
:1003A800090E0126000E0222342A040E345CC6E32C
:0403B8002B82120082
:1003BC00F40E616E010E626E000E636E646EDEDE14
:0803CC00D3DE0000F5D712009A
:1003D4008276640E616E000E626E636E646ED2DEAF
:0803E400C7DE0000F5D712008E
:1003EC00946A826A1DDF5C6ABC0E5D6E030E5E6EE3
:1003FC00000E5F6E000E606E99DF020E5C6EB60E24
:10040C005D6E020E5E6E000E5F6E000E606E8EDF15
:10041C00040E5C6ED40E5D6E030E5E6E000E5F6E8F
:10042C00000E606E83DF070E5C6E200E5D6E030E99
:10043C005E6E000E5F6E000E606E78DF19DF2B981B
:10044C002B862D6A2E6A040E256E2504006E016A19
:10045C00000E015A270E0024D96E000E0120DA6E10
:10046C00DECF00F000C026F0000E016E090E046E07
:10047C00000E056E27DF370E0024356E000E0120AE
:10048C00366E35C0E9FF36C0EAFF010E006E5B0E1A
:10049C00E16E000EE26EEECFE6FF0006FCE15BAC17
:1004AC0003D05BBE01D001D086D05BB643D0F1DE69
:1004BC0056DED70EEF16280E5B14006E0050EF12AE
:1004CC002BB638D05BB603D02CB001D032D02F0E67
:1004DC00016E000E026E26500126D8B0022A01C011
:1004EC00E9FF02C0EAFF2E50EE5C006E01C0E1FF96
:1004FC0002C0E2FF00C0E6FF33C025F0255217E032
:10050C00270EE16E000EE26E2550E126D8B0E22AED
:10051C002504006E016A000E015A270E0024E96EB4
:10052C00000E0120EA6EEECFE6FF2506E7D726C0C7
:10053C0027F075D05BA803D05BBA01D03CD05BA68A
:10054C003AD02F0EE96E000EEA6E2650E926D8B08E
:10055C00EA2AEECF01F001C034F001BE1CD0080E27
:10056C003424016E01C034F035C0E9FF36C0EAFF17
:10057C00EECF00F0070E00160050015C006E00C0BC
:10058C0034F02F0EE16E000EE26E2650E126D8B04C
:10059C00E22A00C0E6FF34502D5C08E22DC02EF09C
:1005AC0034C02DF02504336E2B8805D034502E5CCE
:1005BC0002E234C02EF02506255201E046D72BA8C6
:1005CC002ED02B962C90270ED96E000EDA6E33504F
:1005DC00D926D8B0DA2ADECF00F000C026F0000E03
:1005EC00016E090E046E000E056E6CDE370E0024D3
:1005FC00356E000E0120366E35C0E9FF36C0EAFFBD
:10060C00010E006E5B0EE16E000EE26EEECFE6FFA9
:10061C000006FCE15BAC03D05BBE01D048D70FD722
:02062C00FFD7F6
:020000040030CA
:0D000100260F0EFF0181FF0FC00FE00F4022
:00000001FF
