:1000000064EF02F00000000000EF00F000000000CC
:0A0010000000000000000000F3D71C
:10001C00C7B409D01F0EC514016E0150000A03E1CC
:0A002C00010E006E01D0006A120000
:04003600C58412006B
:10003A009E9661C0C9FFC7A401D0FDD79EB601D064
:10004A00FDD7C5BC02D0006A03D0C584020E006E7B
:02005A00120092
:10005C000001616B626B6251120802E161518E0802
:10006C0008E3D6DF005201E004D00001614B622BA3
:10007C00F2D70001120E625D02E18F0E615D03E3A7
:10008C007B0E006E05D0C580C5A001D0FDD7006ADF
:02009C00120050
:10009E00086A096A100E0C6E0134083609360450CF
:1000AE00085E0550D8A0053C095ED8B007D00450B4
:1000BE0008260550D8B0053C0926D89000360136E2
:0600CE000C2EEAD712001F
:0A00D400C582C5A201D0FDD71200BD
:1000DE005E6A050E5E5C0AE25E505C24E16E000E06
:1000EE005D20E26E200EE66E5E2AF3D75E505C2433
:1000FE00E16E000E5D20E26EE66A5E065E505C24E6
:10010E005F6E000E5D200001606F0A0E046E000E21
:10011E00056E5AC000F05BC001F0BADF08C000F0F7
:10012E0009C001F0300E00265FC0E1FF60C0E2FFA3
:10013E0000C0E6FF0A0E046E000E056E5AC000F0F7
:10014E005BC001F0A5DF00C05AF001C05BF0000EED
:10015E00011802E1000E001801E102D05E06CED7B2
:02016E0012007D
:0E017000ACB202D00000FCD75AC0ADFF1200A6
:10017E000134083609360450085E0550D8A0053CF7
:10018E00095E003601360F0E0C6E01340836093644
:10019E00045000A006D0085E0550D8A0053C095EAC
:1001AE0005D008260550D8B0053C09260036013684
:1001BE000C2EEBD700B006D0045008260550D8B050
:0801CE00053C092600001200A7
:1001D60042DF1EC061F02EDF5AC061F02BDF5BC02C
:1001E60061F028DF25DF040E0B6E0C0E0C6E330E4D
:1001F6000D6E0D2EFED70C2EFCD70B2EFAD7000057
:0402060000001200E2
:10020A009E96C5869EB601D0FDD7C9CF01F05A5039
:10021A00000A02E1C58A01D0C59A9E96C5889EB693
:0A022A0001D0FDD701C000F0120062
:100234006B0E5A6E800E5B6ECCDF6B0E5A6E5B6A71
:10024400C8DF1B0E5A6E5B6AC4DF1C0E5A6E5B6AF3
:04025400C0DF1200F5
:100258000900F5CFE6FF0006FBE10106F9E112000F
:10026800700E356E010E366E5A0E376E000E386EF1
:10027800FF0E296EFF0E2A6E000E2B6E000E2C6EDE
:10028800FF0E2D6EFF0E2E6E000E2F6E000E306EBE
:10029800FF0E316EFF0E326E000E336E000E346E9E
:1002A800AC8A900EAB6E948E949C9EAA03D0AECF6F
:0602B80000F0FBD712006C
:1002BE00939093928A908A9293809382C79EC79CC2
:0602CE00380EC66E12009E
:1002D4000450000A08E10550000A05E1FF0E006E13
:1002E4007F0E016E57D00D6A096A086A015000102A
:1002F400D8B4000C015005180A6E0ABE0D1E0B6A14
:1003040005AE05D0041E051E042AD8B4052A01AE84
:1003140005D0001E011E002AD8B4012A0150051080
:100324000A6E0ABE10D029DF0BB020D00DAE000C2F
:10033400001E011E002AD8B4012A081E091E082A1C
:10034400D8B4092A000C05AE0DD001BE07D0015067
:10035400096E0050086E016A006AE8D7016A006AF3
:10036400002A000C011E001E0B2ADDD7082AD8B46F
:10037400092A0450085CD8A4D9D70550095CD8A42C
:10038400D5D7096A086A002AD8B4012A01AECED7A3
:060394000000FF0C120046
:10039A00566A576A50C058F051C059F0800E511829
:1003AA00006E800E005C02E1000E505C0BE2010E52
:1003BA00566E000E576E50500008586E51C059F0D4
:1003CA00000E595658C05AF059C05BF052C05CF042
:1003DA0053C05DF07FDE060E546E000E556E000EA1
:1003EA00006E5550005C02E15450000819E2545066
:1003FA005224E16E55505320E26E010E545C006E99
:10040A00000E5558016E00505224E96E01505320D7
:10041A00EA6EEECFE6FF010E545E000E555ADFD7A4
:10042A0052C0E1FF53C0E2FF200EE66E565057104D
:10043A001AE0546A556A54505224E96E55505320B2
:10044A00EA6EEE50200A03E1544A552AF4D7010E07
:10045A00545E000E555A54505224E16E55505320A2
:08046A00E26E2D0EE66E120099
:10047200536A50C0E9FF51C0EAFFEECF52F052502A
:10048200000A0DE052C05AF072DE532A5350502433
:10049200E96E000E5120EA6EEECF52F0F0D7120054
:1004A200DCDD1EC061F0C8DD50C061F0C5DD11DECB
:1004B2001FC061F0C1DD5A6AA7DE00C051F0BADD8B
:0604C20051C000F0120021
:1004C80083EC03F095908390C186C184C182C1807A
:1004D8004D0EAF6EAC94C4DE780EC86EECDEA6DEB0
:1004E80083901F0E0B6E710E0C6E1E0E0D6E0D2E70
:1004F800FED70C2EFCD70B2EFAD7000083801F0ED8
:100508000B6E710E0C6E1E0E0D6E0D2EFED70C2E80
:10051800FCD70B2EFAD70000410E506EBEDF00C08C
:100528004FF04E6A420E506EB8DF000E016E4E500C
:1005380000264F5001227C0E00262E0E0122540E5A
:10054800046E010E056EC2DE00C050F001C051F00D
:10055800390E526E000E536E1CDF390E506E000EAF
:10056800516E83DF200E506E000E516E7EDF0D0E31
:100578005A6EFADD0A0E5A6EF7DD430E506E8DDFA5
:1005880000C04FF04E6A440E506E87DF00504E2474
:10059800506E000E4F20516E390E526E000E536E83
:1005A800F8DE390E506E000E516E5FDF150E506E7C
:1005B800000E516E5ADF450E506E6FDF00C04FF0CF
:1005C8004E6A460E506E69DF00504E24506E000E83
:1005D8004F20516E390E526E000E536EDADE390E10
:1005E800506E000E516E41DF180E506E000E516EA7
:1005F8003CDF470E506E51DF00C04FF04E6A480E88
:10060800506E4BDF00504E24506E000E4F20516E3E
:10061800390E526E000E536EBCDE390E506E000E4F
:10062800516E23DF0D0E5A6E9FDD0A0E5A6E9CDD49
:100638003B0E506E32DF00C04FF04E6A3C0E506EDB
:100648002CDF00504E24506E000E4F20516E390E94
:10065800526E000E536E9DDE390E506E000E516EB6
:1006680004DF1B0E506E000E516EFFDE3D0E506E05
:1006780014DF00C04FF04E6A3E0E506E0EDF005081
:100688004E24506E000E4F20516E390E526E000EE1
:10069800536E7FDE390E506E000E516EE6DE260E6A
:1006A800506E000E516EE1DE3F0E506EF6DE00C059
:1006B8004FF04E6A400E506EF0DE00504E24506EE1
:1006C800000E4F20516E390E526E000E536E61DED1
:1006D800390E506E000E516EC8DE0D0E5A6E44DD96
:0A06E8000A0E5A6E41DDFCD6FFD762
:1007060010EE15F0140E006E010E016EF20EF66E6E
:0E071600060EF76E000EF86E2CEC01F01200CD
:0306F200202000C5
:0306F500202000C2
:0306F800202000BF
:0106FB00D02E
:0106FC00D12C
:0606FD00205BB0435D002C
:03070300202000B3
:020000040030CA
:0E000000200E1F1EFF8381FF0FC00FE00F4078
:00000001FF
