:02000000F429E1
:10000800FF00030E8301B3000A08B2008A017008DA
:10001800A3007C08A2007D08A1000C1C7728CE3024
:100028008F0032308E00861506168616061786173C
:100038000630FC00D730FD00FD0B2028FC0B2028E3
:10004800A601A7018030F000803027067002031D4A
:100058002F282608503C031C762880302906F000FB
:10006800803027067002031D3B2826082802031843
:100078003E28861180302B06F0008030270670025B
:10008800031D482826082A0203184B280612803028
:100098003106F000803027067002031D5528260817
:1000A800300203185828861280302F06F00080305E
:1000B80027067002031D622826082E0203186528E9
:1000C800061380302D06F000803027067002031DCD
:1000D8006F2826082C02031872288613A60A03190B
:1000E800A70A26280C102308F0002208FC00210883
:1000F800FD0032088A00330E8300FF0E7F0E0900D0
:0E010800F201F101F001F801F30100300800EE
:08011600FA1FF213003008008B
:10011E007B15FB1F99280130F300F201F101F0016C
:08012E00FA0DF20CFF3008008D
:100136007B14FB1FA628F201FA1FFF30F200F10024
:0A014600F000FA0DF20CFF30080083
:10015000FB14FB1FB228FF30F300F200F100F000A7
:08016000FA0DF20CFF3008005B
:0E0168008312031325088A0024088200080071
:10017600A0017208031DD0287108F2007008F10072
:10018600F001A0157208031DD0287108F200F101D4
:10019600A011201672080319DE282008F302031D99
:1001A600031CE2280310F21BE628F00DF10DF20DF8
:1001B600F30BD628E2280130FC008420E92802301F
:0E01C600FC008F20E9280430FC008B2008008C
:1001D400831203131A08F100981CF2281812181637
:0601E4007108F0000800A4
:1001EA00831203137008F8007108F000F101F2019C
:1001FA00F301FB01FC019630F300FA01F01F0B2911
:10020A00F809F009F80A0319F00AFA177008F10058
:0C021A007808F000F801F201BB20080099
:1002260083120313FB017308031950297208FA009D
:10023600F2178E30F302F31F5329F309F30A08303D
:100246007302031C3629F300F10D7208F100F20166
:1002560008307302031C3629F300F10DF10173080F
:10026600031D03103E29730803193E290310F20CDF
:10027600F10CF30B39297B1B711C4829031C4829F7
:10028600F10A0319F20AF21B5F29FA1F6229F20921
:10029600F109F10A0319F20A6229F201F101622950
:1002A6007B14FB1F6529F201FA1F6529FF30F20056
:1002B600F100FA0DF20C65290130FC0067290030C7
:1002C600FC006729FF30FC00FC0803196B299B2002
:0A02D6007108F0007208F100080042
:1002E000B4208A110A128000840AA40A0319A50AFC
:0802F000F003031D7029080052
:1002F80083120313FB017308031D77080319D3291D
:1003080072087606FA007708F3077E30031C9029F6
:10031800F3020318D6299329F302031CD92972087A
:10032800F8007108FC007008FD00F817F6170310B4
:10033800F201F101F0011830A0007D1CAD2974080C
:10034800F00775080318750FF10776080318760F7C
:10035800F207F20CF10CF00CF80CFC0CFD0C03107D
:10036800A00BA129F21BBD29F80DF00DF10DF20D1E
:10037800F3037B1B701CCF29F81FCF29F00A031940
:10038800F10A0319F20A031DCF29F20CF10CF00C43
:10039800F30A0319D629FA1FF2130030DB290130BA
:1003A8008420DB290230A820DB2904308F200000BC
:0203B80008003B
:0E03BA000030831203138C1A0130F00008008B
:1003C80083160313981690308312980083168614A8
:1003D800061183128C1EF3291A08F000ED29080073
:1003E80083120313C201C301033083168600C03091
:1003F8008B0031308312900083160C14831206157B
:100408008130831699001815E421DD21700803193D
:10041800342AEA207008B400B5018030F00080303A
:1004280035067002031D1A2A3408B93C03181E2A1F
:10043800C201C3014208F0004308F100F00DF10DBC
:1004480070107008363E8400340880003508840A2D
:100458008000C20A0319C30A5330FD00FD0B322A7B
:100468003808F0003908F100F520AE30F4004730C4
:10047800F5006130F6007D30F7007C21132170080B
:10048800A8007108A9003A08F0003B08F100F5201F
:10049800AE30F4004730F5006130F6007D30F700EB
:1004A8007C2113217008AA007108AB003C08F000F9
:1004B8003D08F100F520AE30F4004730F50061301A
:1004C800F6007D30F7007C2113217008B000710818
:1004D800B1003E08F0003F08F100F520AE30F4000E
:1004E8004730F5006130F6007D30F7007C2113219C
:1004F8007008AE007108AF004008F0004108F10034
:10050800F520AE30F4004730F5006130F6007D305C
:10051800F7007C2113217008AC007108AD00092A8E
:02052800942A13
:02400E006A2125
:00000001FF
