:0400000006EF0BF00C
:1000080000C01FF001C01EF002C01DF003C01CF0AC
:1000180004C01BF005C01AF006C019F008C018F09B
:1000280009C017F00AC016F00BC015F0E1CF24F094
:10003800E2CF25F0F5CF23F0F8CF20F0F7CF21F06D
:10004800F6CF22F078EC0AF023C0F5FF20C0F8FFC5
:1000580021C0F7FF22C0F6FF1FC000F01EC001F04C
:100068001DC002F01CC003F01BC004F01AC005F04C
:1000780019C006F018C008F017C009F016C00AF039
:0E00880015C00BF024C0E1FF25C0E2FF1100FF
:10009600FEC026F0FFC027F000C12AF001C12BF0F8
:1000A600800E01010211006E008000C029F01200CE
:1000B600000E056E040E066EFEC003F0000E046E02
:1000C600033604360390033604360390FFC000F06F
:1000D600000E016E003601360090005003260150D6
:1000E600042203C001F004C002F00136019002367A
:1000F60001360190023601C003F002C004F004325A
:100106000332049E04BC048E04320332049E04BCF3
:10011600048E03C000F004C001F0003600900136E2
:10012600003600900136055000260650012200C018
:1001360005F001C006F000C0E1FF01C0E2FFE69E47
:100146000001FF51000A12E1FEC000F0000E016E30
:10015600003600900136450E0024E16E000E0120A7
:10016600E26E05C0E6FF06C0E6FF11D0FEC000F055
:10017600000E016E003600900136380E0024E16E46
:10018600000E0120E26E05C0E6FF06C0E6FF05C0D0
:10019600E1FF06C0E2FFE69C040E0524E16E000EB8
:0801A6000620E26EE68C120057
:0E01AE00800E0001FE11006E00C029F012004C
:1001BC00FEC026F0FFC027F000C128F001C12AF0D4
:1001CC0002C12BF0800E01010311006E00C029F05A
:0201DC0012000F
:1001DE0020C401F01F0E01160150010A01E091D05A
:1001EE0004012451000A01E08CD02151060A3CE1A1
:1001FE0031D03750010A16E1920E0001FE6F160E35
:10020E00FF6F000E0101006F120E0001FE27000E9F
:10021E00FF2301010023090E016F000E026F400E35
:10022E00036FC5DF21D03750010A0FE1BB0E00016D
:10023E00FE6F160EFF6F000E0101006F210E016F93
:10024E00000E026F400E036FB2DF0ED00001FE6B88
:10025E00A7DF0AD004012351210ACBE02351220A41
:10026E00E2E02351230AF2E020C401F0600E0116F1
:10027E00050E006E005004E00132019EFF0FFBD709
:10028E000150010A01E03DD029D03BD03AD0510EA9
:10029E000001FE6F000EFF6F010E0101006F000ED8
:1002AE00016F400E026FF0DE2CD00001FE6B78DF86
:1002BE0023C451F026D00001500EFE6F000EFF6FCA
:1002CE00010E0101006F000E016F026BDDDE19D011
:1002DE000001FE6B65DF22C450F013D004012151E2
:1002EE00010AD3E02151090AD1E02151020ACFE0DF
:1002FE0021510A0ADAE02151030ADDE021510B0AED
:04030E00E7E0120012
:100312000001FA51000A12E0F9C000F0000E016E6D
:10032200003600900136380E0024E96E000E0120DE
:10033200EA6EEECF04F0EECF05F011D0F9C000F076
:10034200000E016E003600900136450E0024E96E63
:10035200000E0120EA6EEECF04F0EECF05F0020EA1
:100362000424E16E000E0520E26EFBC0E6FFFCC035
:10037200E6FF010E0424E16E000E0520E26EFDC0D0
:10038200E6FF04C0E9FF05C0EAFFEECF00F004C0BB
:10039200E1FF05C0E2FF400E0014E66E04C0E9FF73
:1003A20005C0EAFFEECF00F004C0E1FF05C0E2FFA6
:1003B200880E0010E66EFA51000A1BE0F9C000F048
:1003C200000E016E003600900136380E0024026ED7
:1003D200000E0120036E02C0E9FF03C0EAFF040E13
:1003E200EE18006E02C0E1FF03C0E2FF00C0E6FFAC
:1003F2001AD0F9C000F0000E016E003600900136EE
:10040200450E0024026E000E0120036E02C0E9FFB9
:1004120003C0EAFF040EEE18006E02C0E1FF03C043
:10042200E2FF00C0E6FF04C000F005C001F01200C8
:10043200700EE16E0F0EE26E0001F951E126D8B0A6
:10044200E22AFAC0E6FFFAA504D0F9C0FEF0FF6B7B
:1004520031DEFAA305D0F9C0FEF0010EFF6F2ADEED
:02046200120086
:10046400405215E0010E0001F96F1E0EFA6FDFDF36
:10047400010EF96FFA6B43C0FBF044C0FCF0400E70
:10048400FD6F45DF00C03CF001C03DF014D0000119
:10049400010EF96F1E0EFA6FCADF010EF96FFA6BC7
:1004A40043C0FBF044C0FCF0400EFD6F30DF00C0E1
:0804B4003CF001C03DF0120014
:0804BC00405201E08EDE120047
:1004C4000B6A0A6A096A00500402F4CF09F0F3CFF8
:1004D40008F001500502F4CF0BF0F3CF0AF00050FE
:1004E4000502F3500926F4500A22E86A0B2201504F
:1004F4000402F3500926F4500A22E86A0B2208C0C9
:1005040000F009C001F00AC002F00BC003F01200B1
:10051400F3C002F0F4C003F0F6C000F0F7C001F03D
:10052400010E0001F65F000EF75B0050011009E0B8
:1005340002C0E1FF03C0E2FFF5C0E6FF024A032A5E
:04054400EBD71200DF
:100548000CD08CDF3CD03BD0B5DF39D038D037D099
:1005580036D035D0000033D032D0000E0001F41967
:1005680002E1010EF319EDE0000EF41902E1020EAA
:10057800F319E9E0000EF41902E1030EF319E4E0BF
:10058800F451000A02E1730EF319E0E0F451000A95
:1005980002E1750EF319DBE0F451000A02E1740E72
:1005A800F319D6E0F4513F0A02E1FF0EF319D1E046
:1005B800F451000A02E1720EF319CCE0CDD7010E16
:0405C800006E1200AF
:1005CC00000E2B5C02E1080E2A5C10E22AC003F03C
:1005DC002BC004F04A50000A03E1010E4A6E05D00C
:1005EC004A50010A02E1020E4A6E04D0080E036E54
:1005FC00000E046E38C0E1FF39C0E2FFE69238C04D
:10060C00E1FF39C0E2FFE69038C0E9FF39C0EAFFEC
:10061C00EECF00F038C0E1FF39C0E2FF045000100B
:10062C00E66E010E3824E16E000E3920E26E03C036
:10063C00E6FF03502A5C006E04502B58016E00C07C
:10064C002AF001C02BF0280E4B6E040E4C6E29B014
:10065C002FD0035004102BE026C0F6FF27C0F7FF65
:10066C0028C0F8FF0900F5CF00F04BC0E1FF4CC0EB
:10067C00E2FF00C0E6FF4B4A4C2A010E2624006E16
:10068C00000E2720016E000E2820026E00C026F0FE
:10069C0001C027F002C028F0010E035C006E000EB2
:1006AC000458016E00C003F001C004F0D2D724D06E
:1006BC000350041021E026C0E9FF27C0EAFF4BC01D
:1006CC00E1FF4CC0E2FFEECFE6FF4B4A4C2A010E95
:1006DC002624006E000E2720016E00C026F001C0FB
:1006EC0027F0010E035C006E000E0458016E00C072
:0A06FC0003F001C004F0DCD7120087
:1007060004012051800AD8A471D0C00E296E64D08D
:10071600FC0E006E160E016E000E026E00C026F074
:1007260001C027F002C028F0120E2A6E000E2B6EB2
:100736005DD0030E006E000E016E22C404F0000EA2
:10074600056EBDDE970E0024E96E000E0120EA6EEE
:10075600EECF26F0EECF27F0EECF28F0020E2624BD
:10076600F66E000E2720F76E000E2820F86E0900A0
:10077600F5CF00F00900F5CF01F000C02AF001C066
:100786002BF034D022513E5C23E3030E006E000EA4
:10079600016E22C404F0000E056E91DE9A0E00244E
:1007A600E96E000E0120EA6EEECF26F0EECF27F0BE
:1007B600EECF28F026C0F6FF27C0F7FF28C0F8FFC7
:1007C6000900F5CF00F000C02AF0000E2B6E01D014
:1007D600296A0CD0296A0AD02351010A99E02351CB
:0E07E600020AA7E02351030ACDE0F4D7120067
:1007F400298E710E0001F36F0F0EF46FF56B010E6D
:10080400F66F000EF76F84DE4D0EF36F000EF46F7B
:10081400F56B010EF66F000EF76F7ADE22C437F027
:100824003750000A03E1100E3F6E0FD0200E3F6ECA
:10083400010EF36F000EF46F370EF56F000EF66FB6
:0C084400010EF76F000EF86F7DDE120051
:100850000401286B296B42D0298E28814950010A56
:1008600001E1288350D0298E4ED0298E24BF16D086
:1008700024C403F00F0E031603C000F0000E016E37
:10088000003600900136450E0024E96E000E01206E
:10089000EA6EEECF04F0EECF05F015D024C403F0DD
:1008A0000F0E031603C000F0000E016E003600901C
:1008B0000136380E0024E96E000E0120EA6EEECFFC
:1008C00004F0EECF05F004C0E9FF05C0EAFFEECF6B
:1008D00001F001A402D0010E286F15D020C401F050
:1008E0001F0E01160150000AB7E020C401F01F0ED0
:1008F00001160150010AB7E020C401F01F0E0116D5
:100900000150020AB2E029AE07D0280E266E040E6E
:0A091000276E2980020E2A6E1200E5
:10091A0004012251010A0FE120C401F01F0E011641
:10092A000150000A08E1298E2151030A03E1010E50
:10093A00496E01D0496A2251000AD8A48BD020C43A
:10094A0001F01F0E01160150020AD8A483D024C454
:10095A0001F00F0E01160150000AD8B47BD0298E7F
:10096A0024BF16D024C403F00F0E031603C000F0F0
:10097A00000E016E003600900136450E0024E96E25
:10098A00000E0120EA6EEECF04F0EECF05F015D08E
:10099A0024C403F00F0E031603C000F0000E016E0C
:1009AA00003600900136380E0024E96E000E012050
:1009BA00EA6EEECF04F0EECF05F02151030A07E10B
:1009CA0004C0E1FF05C0E2FF840EE66E43D024C4F2
:1009DA0000F00F0E0016700E026E0F0E036E00501E
:1009EA000226D8B0032A02C0E9FF03C0EAFFFE0EBE
:1009FA00EE14006EEECF01F0FF0E011602C0E1FF09
:100A0A0003C0E2FF00C0E6FF01C0E6FF24AF11D039
:100A1A0004C0E1FF05C0E2FFE66A040E0418006E96
:100A2A0000C004F004C0E1FF05C0E2FF400EE66E1C
:100A3A0011D004C0E1FF05C0E2FF880EE66E040E85
:100A4A000418006E00C004F004C0E1FF05C0E2FF14
:060A5A00C80EE66E12005A
:100A600020C401F0600E0116050E006E005004E077
:100A70000132019EFF0FFBD70150000A01E062D056
:100A80003ED0298E080E3F6E5DD03DDE5BD0B2DEDB
:100A900059D0370E266E000E276E2980010E2A6E61
:100AA000298E50D0D5DE4ED038DF4CD04D0E006EA2
:100AB000000E016E24510026D8B0012A00C026F095
:100AC00001C027F02980010E2A6E298E3BD0298E85
:100AD0004D0EE16E000EE26E2451E126D8B0E22AFE
:100AE00022C4E6FF2FD0020E0001F36F000EF46F58
:100AF000F56BF66BF76BF86B27DD24D023D0040180
:100B00002151050ABEE02151060ABFE02151090A20
:100B1000BEE02151080ABDE02151000AC3E0215185
:100B2000010AC2E02151030ABFE021510A0ABEE0D6
:100B300021510B0ACCE02151070AD5E021510C0AC2
:060B4000DDE0DCD712002D
:100B4600546A38C0E1FF39C0E2FFE66A040E38187D
:100B5600E16E39C0E2FF000EE21AE66A30AE01D05D
:040B6600309E1200AB
:100B6A006D9829BE49D030AE28D0020E546E010EBF
:100B7A003824E16E000E3920E26EE66A38C0E1FFE1
:100B8A0039C0E2FFC80EE66E010E5524E16E000E72
:100B9A005620E26E080EE66E020E5524E16E000E35
:100BAA005620E26E280EE66E040EE66E55C0E1FF90
:100BBA0056C0E2FFC80EE66E1ED0010E5524E16E45
:100BCA00000E5620E26E080EE66E020E5524E16E05
:100BDA00000E5620E26E200EE66E040EE66E55C03A
:100BEA00E1FF56C0E2FF8C0EE66E38C0E1FF39C065
:100BFA00E2FF840EE66E7DD030BE7BD0040120AFCA
:100C0A0051D02B50275D02E12A50265D04E226C40A
:100C1A002AF027C42BF0D5DC010E546E010E5524A0
:100C2A00E16E000E5620E26E080EE66E020E5524A4
:100C3A00E16E000E5620E26E200EE66E040EE66E9F
:100C4A0055C0E1FF56C0E2FF800EE66E4F6A010E04
:100C5A005224E16E000E5320E26E080EE66E020E7A
:100C6A005224E16E000E5320E26E200EE66E040E50
:100C7A00E66E52C0E1FF53C0E2FF840EE66E010E3B
:100C8A004F6E020E3824E16E000E3920E26E280EF5
:100C9A00E66E040EE66E38C0E1FF39C0E2FFC80E08
:100CAA00E66E27D0020E546E010E3824E16E000E55
:100CBA003920E26EE66A38C0E1FF39C0E2FFC80EA9
:100CCA00E66E010E5524E16E000E5620E26E080E05
:100CDA00E66E020E5524E16E000E5620E26E280ED4
:100CEA00E66E040EE66E55C0E1FF56C0E2FFC80E7E
:040CFA00E66E120090
:100CFE00010E5224E96E000E5320EA6EEECF00F084
:100D0E0000C002F0000E325C02E10250315C03E2E0
:100D1E0031C002F00AD00250315C006E000E325823
:100D2E00016E00C031F001C032F0036A0250035C64
:100D3E001CE2280EE96E040EEA6E0350E926D8B0C6
:100D4E00EA2AEECF00F02EC0E1FF2FC0E2FF00C076
:100D5E00E6FF010E2E24006E000E2F20016E00C045
:100D6E002EF001C02FF0032AE1D7000E006E325094
:100D7E00005C02E13150000828E2010E5524E16EBC
:100D8E00000E5620E26E080EE66E020E5524E16E3F
:100D9E00000E5620E26E280EE66E040EE66E52C06F
:100DAE00E9FF53C0EAFFEECF00F000BC07D055C0FC
:100DBE00E1FF56C0E2FFC80EE66E06D055C0E1FF59
:100DCE0056C0E2FF880EE66E19D0010E5524E16E74
:100DDE00000E5620E26E080EE66E020E5524E16EEF
:100DEE00000E5620E26E200EE66E040EE66E55C024
:0E0DFE00E1FF56C0E2FF840EE66E309E12004A
:100E0C005450020A02E175DF1ED097DE4F50000AE3
:100E1C0019E1010E5524E16E000E5620E26E080E0B
:100E2C00E66E020E5524E16E000E5620E26E200E88
:100E3C00E66E040EE66E55C0E1FF56C0E2FF8C0E66
:080E4C00E66E01D04F6A1200AE
:100E5400FC0E006E160E016E000E026E0E0E0024C5
:100E6400F66E000E0120F76E000E0220F86E0900E7
:100E7400F5CF03F003C004F00F0E0024F66E000E4D
:100E84000120F76E000E0220F86E0900F5CF01F084
:100E94000150035C12E2FC0E006E160E016E000E91
:100EA400026E0F0E0024F66E000E0120F76E000E87
:100EB4000220F86E0900F5CF04F0FC0E006E160E49
:100EC400016E000E026E100E0024F66E000E01205C
:100ED400F76E000E0220F86E0900F5CF01F0015004
:100EE400045C12E2FC0E006E160E016E000E026E21
:100EF400100E0024F66E000E0120F76E000E022084
:0E0F0400F86E0900F5CF04F004C000F01200F2
:0A0F1200D08EA28AA08AF28E12008F
:100F1C00EAC002F0EBC003F0EDC000F0EEC001F04F
:100F2C00010E0001ED5F000EEE5B0050011009E0B8
:100F3C0002C0E1FF03C0E2FFECC0E6FF024A032A55
:040F4C00EBD71200CD
:100F50000001ED6BEE6BEF6B020EEA25F66E000EF4
:100F6000EB21F76E000EEC21F86E0900F5CF05F0CD
:100F7000030EEA25F66E000EEB21F76E000EEC2153
:100F8000F86E0900F5CF00F000C003F0000E046E0B
:100F900003C001F0006A05500024066E000E012017
:100FA000076EEAC008F0EBC009F0ECC00AF0010ED1
:100FB0000824F66E000E0920F76E000E0A20F86E67
:100FC0000900F5CF01F00150020A1BE1060E0824CA
:100FD000F66E000E0920F76E000E0A20F86E09006A
:100FE000F5CF01F00150ED5D0CE2060E0824F66E1F
:100FF000000E0920F76E000E0A20F86E0900F5CFEA
:10100000EDF0010E0824F66E000E0920F76E000EBA
:101010000A20F86E0900F5CF01F00150040A1BE127
:10102000080E0824F66E000E0920F76E000E0A2046
:10103000F86E0900F5CF01F00150ED5D0CE2080EED
:101040000824F66E000E0920F76E000E0A20F86ED6
:101050000900F5CFEDF008C0F6FF09C0F7FF0AC0A0
:10106000F8FF0900F5CF00F00050EE25016E000EEC
:10107000EF21026E01C0EEF002C0EFF00750025CFB
:1010800002E10650015C01E30FD008C0F6FF09C081
:10109000F7FF0AC0F8FF0900F5CF00F0005008265E
:0E10A000000E09220A2283D7EDC000F01200D4
:1010AE00920E0001976F160E986F000E996F1A0E22
:1010BE009A6F170E9B6F000E9C6F0E0E9D6F170E84
:1010CE009E6F000E9F6FDC0EA06F160EA16F000EAE
:0410DE00A26F1200EB
:1010E200160E6F6E9F0E6B6E7B0E696E1200160EE1
:0C10F2006F6E9F0E6B6E7B0E696E12001D
:1010FE0038C0E9FF39C0EAFFEECF00F000AE05D0F0
:10110E0038C0E1FF39C0E2FFE66A4A6A546A2A6AC9
:10111E002B6A296A9EDC030E0001F36F000EF46F3A
:10112E00F56BF66BF76BF86BA4EC02F017DD1200A3
:10113E0038C0E9FF39C0EAFFEECF00F0000E00BC68
:10114E00010E0001F26F040E3818006E00C038F068
:10115E003F50080A0AE122C46EFF6E50000803E2F7
:10116E00100E3F6E02D0040E3F6E5450010A28E15D
:10117E00020E3824E16E000E3920E26E280EE66E65
:10118E00040EE66EE6EC02F04A50020A07E138C0A1
:10119E00E1FF39C0E2FF840EE66E11D00001F2517C
:1011AE00000A07E138C0E1FF39C0E2FFC80EE66E63
:1011BE0006D038C0E1FF39C0E2FF880EE66E01D0DE
:0411CE00BBDC120074
:1011D200740E0001F36F000EF46FF56BF66BF76B94
:1011E200F86BA4EC02F06D92699468A403D0FB0E34
:0611F2006816FBD7120095
:0411F800A19A1200A6
:1011FC0058DF3C6A3D6A2C6A2D6A6A6A686A6BDF42
:10120C006D8C6E6A710EEA6F0F0EEB6FEC6B010E4C
:10121C00ED6F000EEE6F7CDE6D9CE86B080EE85DEA
:10122C0016E2E8C000F0000E016E003600900136A8
:10123C00003600900136000E0024E16E040E0120F1
:10124C00E26EE66AE66AE66AE66AE82BE7D7160E0D
:10125C00706E68A603D0F70E6816FBD7296A306A41
:10126C00316A326A6D98080E386E040E396E376A20
:04127C003F6A1200B3
:10128000E9DD00C0E8F0920E0001EA6F160EEB6F88
:10129000000EEC6F5DDE00C0E9F0E851005C03E297
:0C12A000E8C000F002D0E9C000F012002D
:1012AC003F50000A0AE16D6A696A15DF2CDE6DB6E3
:0C12BC0002D06D86FCD7010E3F6E1200C0
:1012C8006984EF0E68166D82750E0001F36F000ECB
:1012D800F46FF56BF66BF76BF86BA4EC02F0120089
:1012E800E2DE3C6A3D6A2C6A2D6A6A6A686AF5DE43
:1012F8006D8C6E6A710EF36F0F0EF46FF56B010E45
:10130800F66F000EF76F8AEC02F06D9CF16B080E19
:10131800F15D16E2F1C000F0000E016E003600909B
:101328000136003600900136000E0024E16E040EEE
:101338000120E26EE66AE66AE66AE66AF12BE7D71A
:10134800160E706E68A603D0F70E6816FBD7296ACA
:10135800306A316A326A6D98080E386E040E396E3A
:06136800376A3F6A120023
:10136E00FD0E4E14016E026AFF0E0216000E0218DA
:10137E0002E1000E01186CE17E0E4E14016E01C0EA
:10138E0003F00332039E03C000F0000E016E003620
:10139E0000900136003600900136000E0024026ED9
:1013AE00040E0120036E02C052F003C053F002C0BF
:1013BE0055F003C056F0040E5518006E00C055F0DF
:1013CE0002C0E9FF03C0EAFFEECF00F000C001F05B
:1013DE003C0E01160132019E0132019E01500D0A92
:1013EE0035E1020E5224E96E000E5320EA6EEECF66
:1013FE0001F0EECF02F00250040A02E1280E0118AD
:10140E0023E1020E5224E16E000E5320E26E200EF6
:10141E00E66E040EE66E0001F16B080EF15D14E24D
:10142E00200EE16E040EE26EF151E126D8B0E22AF2
:10143E00280EE96E040EEA6EF151E926D8B0EA2ABA
:10144E00EECFE6FFF12BE9D753DE01D0D8DC0DD07D
:10145E00FD0E4E14016E026AFF0E0216000E0218E9
:0C146E0002E1040E011801E163DE12002F
:10147A0070A019D052C0E9FF53C0EAFFEECF01F0C5
:10148A000150800A0FE138C0E9FF39C0EAFFEECF08
:10149A0001F00150840A06E152C0E1FF53C0E2FFA5
:0C14AA008C0EE66E7090DF0E68161200CB
:1014B600E4DE00C03EF0010E406EE4C043F0E5C03D
:1014C60044F0E6C041F0E7C042F095DE010E016E41
:0A14D6000150010A01E1E7DE1200F7
:1014E0000900F5CFE6FF0006FBE10106F9E1120075
:1014F0003F50010A07E16DBA05D0686A69806988C2
:10150000020E3F6E68A405D069A403D0FB0E6816D6
:1015100060DE6DA202D070DE78D068A018D069A01D
:1015200016D0E2DE040E3F6E200E0401026F040EA0
:10153000036F080E016F000E0015006E00C000F46E
:101540008C0E0011006E00C000F4FE0E681668A834
:1015500005D069A803D0B8DEEF0E681668AC11D0CC
:1015600069AC0FD0730E0001F36F000EF46FF56BD2
:10157000F66B010EF76F000EF86FA4EC02F0BF0ED1
:10158000681668AA03D069AA01D077DF68A210D0D4
:1015900069A20ED0FF0E0001F36F3F0EF46FF56BE2
:1015A000F66B010EF76F000EF86FA4EC02F06A6A9A
:1015B000040E3F5C02E220DE28D069A625D000019F
:1015C000F06B040EF05D20E268A61AD06CCF4EF0EE
:1015D000F70E6816780E4E14016E0150000A02E1F3
:1015E000C6DE0DD0720E0001F36F000EF46F4E0ECA
:1015F000F56F000EF66FF76BF86BA4EC02F001D0FC
:0C16000003D00001F02BDDD7F7DD120055
:10160C00F26AF50EF16EC00EF06ED09E9D6AA06A65
:10161C009E6AA16A9590A30E0001E46F000EE56F1F
:10162C00570EE66F000EE76F40DF0001E36B400ED4
:10163C00E35D0BE2570EE16E000EE26EE351E12624
:10164C00D8B0E22AE66AE32BF2D78380150E0B6E34
:10165C004B0E0C6EBE0E0D6E0D2EFED70C2EFCD747
:10166C000B2EFAD700008390150E0B6E4B0E0C6EE2
:10167C00BE0E0D6E0D2EFED70C2EFCD70B2EFAD7F0
:06168C000000E3D7FFD7C8
:10169200090229000101008032090400000203004E
:1016A20000000921010100012221000705810340F8
:0916B200000107050103400001DD
:1016BB000600FF0901A10119012940150026FF00B1
:1016CB0075089540810219012940750895409102D2
:0116DB00C04E
:1016DC0020035500530042002000480049004400FC
:1016EC0020004C00690062007200610072007900F9
:1016FC00120100020000000804D8000A01000102D7
:02170C000001DA
:0C170E000C0342007200790061006E00C4
:04171A0004030904B7
:020000040030CA
:0E000000080E1F1EFF8381FF0FC00FE00F4090
:00000001FF
