:04000000B8EF00F065
:1000080000C016F001C015F0F2A402D0F2BAF294C2
:100018009EA202D09E9216D816C000F015C001F01C
:020028001100C5
:0A002A0017C0E9FF18C0EAFF12003A
:10003400FADFEECF30F00500EE50FD6EEE50FE6EAE
:08004400EE50FF6E12001200E5
:10004C001AA80ED0010E1F24006E000E2020016E87
:10005C0000C01FF001C020F01F502010D8B41A9817
:10006C0021A80ED0010E2624006E000E2720016E52
:10007C0000C026F001C027F026502710D8B42198D4
:10008C0028A80ED0010E2D24006E000E2E20016E1D
:10009C0000C02DF001C02EF02D502E10D8B4289891
:0200AC00120040
:1000AE002F921A0E016E000E026E196A01C0E9FF40
:1000BE0002C0EAFFEECF00F000BC28D0318C3186B2
:1000CE00010E0124E16E000E0220E26E32C0E6FF48
:1000DE0033C0E6FF34C0E6FF35C0E6FF050E01244F
:1000EE00E16E000E0220E26EE66AE66A01C0E1FFF2
:1000FE0002C0E2FF31C0E6FF0250181802E11750AD
:10010E00011802E131C030F02F9209D0070E0126FE
:10011E00000E0222192A030E195CC8E32F82120068
:10012E00806A816A010E926E010E936EF19E826A52
:10013E00946A4E0ECA6E9D82FA0ECB6EC00EF26E91
:04014E00F28C12001D
:100152002F6A1A0E006E000E016E0E0E0024176E2C
:0E016200000E0120186E1A9C219C289C120091
:10017000DEDFEFDF316AFF0E326EFF0E336E000EF0
:10018000346E000E356E93DF316AFF0E326EFF0E55
:10019000336E000E346E000E356E89DF316AFF0E4D
:1001A000326EFF0E336E000E346E000E356E7FDF42
:1001B000F28ED0BEF28C196A1A0E006E000E016E1D
:1001C0000E0E0024026E000E0120036E0350185C18
:1001D00002E10250175C05E31A0E176E000E186E4E
:1001E0000AD0070E1724006E000E1820016E00C002
:1001F00017F001C018F017C0E9FF18C0EAFF010EA0
:10020000006E300EE16E000EE26EEECFE6FF0006ED
:10021000FCE130AC03D030BE01D001D00ED030A80C
:1002200003D030BA01D009D005DFFFDED70EEF16BC
:0E023000280E3014006E0050EF12BDD7FFD71D
:020000040030CA
:0D000100220F0EFFFF81FF0FC00FE00F4028
:00000001FF
