:1000000005EF02F00000000000EF00F0000000002B
:0A0010000000000000000000F3D71C
:08001C000AAE029E000E120064
:100024000B840BAE1DEF00F0010E036E026A016A31
:0A003400006A0A360232FF0E1200C5
:0E003E00026A016A006A086A036A000E120074
:10004C000B6A0A6A096A00500402F4CF09F0F3CF74
:10005C0008F001500502F4CF0BF0F3CF0AF000507A
:10006C000502F3500926F4500A22E86A0B220150CB
:10007C000402F3500926F4500A22E86A0B2208C045
:10008C0000F009C001F00AC002F00BC003F012002E
:10009C000C6A0E6A0250D8A467EF00F001C002F09F
:1000AC0000C001F0006A0E860250D8A467EF00F081
:1000BC0001C002F0016A0E960E880250D8B479EF96
:1000CC0000F00E50035ED8A4D8A07EEF00F0D890BC
:1000DC0002BE83EF00F0003601360236032E6EEFBF
:1000EC0000F07EEF00F0010E0C6EA3DF86EF00F047
:1000FC00020E0C6E91DF86EF00F0040E0C6E88DFA2
:02010C001200DF
:0A010E00070E0D6E0D2EFED7120035
:100118000B820BAE96EF00F0036802680168006876
:080128000A360232FF0E12003C
:10013000CB50010F006E016A000E012232C004F0A4
:10014000000E056E83DF060E026E00C004F001C0D3
:1001500005F0025005E005320432059EFF0FFAD784
:10016000040E016E04C000F0015004E0003600905F
:10017000FF0FFBD7300E0014036E04C000F005C063
:1001800001F001320032019E01320032019E00C0B6
:0C019000BEFF0F0EBD160350BD12120082
:10019C000A6A0350D8A40A800750D8A40A820A50CD
:1001AC00D8B431EF01F0030AD8B4EAEF00F00AB08A
:1001BC00E5EF00F006AE2FEF01F02DEF01F002AEEF
:1001CC002DEF01F02FEF01F00250800B0A6E029E12
:1001DC000650800B069E0A18D8B4FBEF00F00A50AC
:1001EC00D8B42DEF01F02FEF01F00750035CD8B419
:1001FC0005EF01F0D8A021EF01F027EF01F0065038
:10020C00025CD8B40FEF01F0D8A021EF01F027EF7A
:10021C0001F00550015CD8B419EF01F0D8A021EF22
:10022C0001F027EF01F00450005CD8B431EF01F07D
:10023C00D8B027EF01F00A52D8B42FEF01F02DEF10
:10024C0001F00A52D8B42DEF01F02FEF01F0D88055
:0E025C001200D8901200D880D8841200120030
:0A026A009494CA840C0EBD12120019
:08027400BE6ABD98BD9A12009C
:10027C00C26A070EC012C08E32C000F00036009069
:10028C00003600900050C212C2803BDFC282C2A274
:10029C0001D0FDD7C4CF01F0006AC3500012000E8C
:0602AC000112C2901200D5
:1002B200086A096A000E07620364DEEF01F0025069
:1002C20006180A6E075003267E0ED8A06FEF01F0C3
:1002D200035ED8B0E2EF01F073EF01F0035ED8A045
:1002E200E6EF01F0028E068E02C00EF001C00BF0A6
:1002F20000C00DF000500402F4CF0CF001500502D2
:10030200F4CF00F0F3CF08F00402F3500C26F450BF
:100312000822000E00220D500502F3500C26F45064
:100322000822000E002202500402F3500826F45064
:10033200002202500502016A000E0122F35000263B
:10034200F45001220D500602F3500826F450002208
:10035200026A000E012202220B500602F35000260E
:10036200F4500122000E02220E500602F350012622
:10037200F450022202BEC6EF01F008360036013602
:1003820002360306D8B4E6EF01F0D9EF01F0D880C7
:10039200800E08640030000E002201220222D8A042
:1003A200D9EF01F0023201320032034AE2EF01F0EA
:1003B2000AAE029E000EE8EF01F0010E3FDEE8EF0A
:1003C20001F0020EA8DEE8EF01F0040E2ADE1200B0
:1003D2000900F5CFE6FF0006FBE10106F9E1120094
:1003E2000050086E0150006E016A026A036A0B6ACD
:1003F2000C6A960E036E0A6A00C001F008C000F093
:08040200086A026A4ADE1200DA
:10040A00070E926E030E956E9396CA90CA923F0E8D
:10041A00CB6E2BDF25DF83B002D0319001D0318043
:10042A0083B202D0319801D0318831B202D083949C
:10043A0001D0838431B402D0839601D0838631B649
:10044A0002D0839801D0838831BA02D0839A01D02E
:10045A00838A326A0EDFC0DF710E046E3D0E056EAE
:10046A007A0E066E7D0E076E1FDF00C015F001C002
:10047A0016F002C017F003C018F0010E326EF9DE52
:10048A00ABDF710E046E3D0E056E7A0E066E7D0EA2
:10049A00076E0ADF00C019F001C01AF002C01BF093
:1004AA0003C01CF0020E326EE4DE96DFDE0E046E2E
:1004BA00FF0E056E470E066E7B0E076EF5DE00C058
:1004CA001DF001C01EF002C01FF003C020F031A0D1
:1004DA0021D0000E216E000E226E300E236E830E86
:1004EA00246E000E256E000E266E100E276E830EE9
:1004FA00286E000E296E000E2A6E700E2B6E820E6A
:10050A002C6E000E2D6E000E2E6E480E2F6E840E6F
:10051A00306E20D0000E216E000E226E200E236E49
:10052A00830E246E000E256E000E266E000E276EB8
:10053A00830E286E000E296E000E2A6E500E2B6E48
:10054A00820E2C6E000E2D6E000E2E6E200E2F6E59
:10055A00840E306E25C004F026C005F027C006F0D0
:10056A0028C007F015C000F016C001F017C002F04D
:10057A0018C003F00EDE010ED8B0000E006E005255
:10058A0004E03192326ACFDD1FD015C004F016C0E4
:10059A0005F017C006F018C007F021C000F022C00D
:1005AA0001F023C002F024C003F0F3DD010ED8B03D
:1005BA00000E006E005205E03182010E326EB3DD8C
:1005CA0003D03182326AAFDD19C004F01AC005F0D7
:1005DA001BC006F01CC007F029C000F02AC001F0B9
:1005EA002BC002F02CC003F0D4DD010ED8B0000EEF
:1005FA00006E005202E0319401D031842DC004F023
:10060A002EC005F02FC006F030C007F01DC000F064
:10061A001EC001F01FC002F020C003F0BADD010EB7
:10062A00D8B0000E006E005202E0319601D0318639
:0E063A0031A802D0319A01D0318AEDD6FFD717
:020000040030CA
:0E000000000C1F1EFF8381FF0FC00FE00F409A
:00000001FF
