:040000000FEF02F00C
:1000080000C019F001C018F00BC017F00CC016F0B2
:100018000DC015F0F2A436D01AC000F01BC001F0D4
:10002800DAD9CD0E046ECC0E056E4C0E066E800E1F
:10003800076E41D99DD800C046F001C047F08380C3
:10004800050E0C6E600E0D6E0D2EFED70C2EFCD715
:1000580000000000486A496A800E4718006E800E4A
:100068004918005C02E14850465C07E3020E0D6E39
:100078000D2EFED7484A492AEFD78390F294050EF1
:10008800D76ED66A19C000F018C001F017C00BF07F
:0A00980016C00CF015C00DF01100A9
:0800A2000AAE029E000E1200DE
:1000AA000B840BAE60EF00F0010E036E026A016A68
:0A00BA00006A0A360232FF0E12003F
:0E00C400026A016A006A086A036A000E1200EE
:1000D2000B800BAE75EF00F0026A0AAEFF0E026EE5
:0C00E200016E006E0A360232FF0E1200A2
:1000EE000C6A0E6A0250D8A490EF00F001C002F024
:1000FE0000C001F0006A0E860250D8A490EF00F006
:10010E0001C002F0016A0E960E880250D8B4A2EF1A
:10011E0000F00E50035ED8A4D8A0A7EF00F0D89040
:10012E0002BEACEF00F0003601360236032E97EF1A
:10013E0000F0A7EF00F0010E0C6EBDDFAFEF00F088
:10014E00020E0C6EABDFAFEF00F0040E0C6EA2DFF2
:02015E0012008D
:100160000B820BAEBAEF00F003680268016800680A
:080170000A360232FF0E1200F4
:100178000B6A0350D8B402EF01F002500A6E028EE7
:100188008E0E035E03AE06EF01F0036C080E035CEF
:10019800D8A0E1EF00F0036E013602C001F0026A58
:1001A800080E035CD8A0E1EF00F0036E0136016A87
:1001B8000350D8A4D890EBEF00F00350D8B4EBEF7D
:1001C80000F0D89002320132032EE5EF00F00BBCAC
:1001D80001A0F8EF00F0D8A0F8EF00F0012AD8B499
:1001E800022A02BE15EF01F00AAE1AEF01F0021E54
:1001F800011E012AD8B4022A1AEF01F0026A016A24
:100208001AEF01F00B800BAE1EEF01F0026A0AAE86
:100218001EEF01F0FF0E026E016E0A3602321EEF6B
:1002280001F0010E0C6E51DF20EF01F0000E0C6E94
:1002380020EF01F0FF0E0C6E0150006E0250016EAF
:020248001200A2
:10024A00B00E1C6E020E1D6E450E1E6E000E1F6E47
:10025A00FF0E206EFF0E216E000E226E000E236E20
:10026A00FF0E286EFF0E296E000E2A6E000E2B6EF0
:10027A00FF0E246EFF0E256E000E266E000E276EF0
:10028A00AC8A900EAB6E948E949C9EAA03D0AECF8D
:06029A0000F0FBD712008A
:1002A0000900F5CFE6FF0006FBE10106F9E11200C7
:0E02B000ACB202D00000FCD745C0ADFF12007A
:1002BE00086A096A000E07620364E4EF01F0025057
:1002CE0006180A6E075003267E0ED8A075EF01F0B1
:1002DE00035ED8B0E8EF01F079EF01F0035ED8A02D
:1002EE00ECEF01F0028E068E02C00EF001C00BF094
:1002FE0000C00DF000500402F4CF0CF001500502C6
:10030E00F4CF00F0F3CF08F00402F3500C26F450B3
:10031E000822000E00220D500502F3500C26F45058
:10032E000822000E002202500402F3500826F45058
:10033E00002202500502016A000E0122F35000262F
:10034E00F45001220D500602F3500826F4500022FC
:10035E00026A000E012202220B500602F350002602
:10036E00F4500122000E02220E500602F350012616
:10037E00F450022202BECCEF01F0083600360136F0
:10038E0002360306D8B4ECEF01F0DFEF01F0D880AF
:10039E00800E08640030000E002201220222D8A036
:1003AE00DFEF01F0023201320032034AE8EF01F0D2
:1003BE000AAE029E000EEEEF01F0010E7CDEEEEFB5
:1003CE0001F0020EC6DEEEEF01F0040E67DE120043
:1003DE0000C008F00150006E016A026A036A0B6ADF
:1003EE000C6A016A026A036A960E036E0A6A00AE0E
:1003FE0007EF02F0081E001E082AD8B4002A0A8E43
:10040E0000C001F008C000F0086A026A69DE12003E
:10041E005A0E1A6E1B6A416A426A010E436E000E34
:10042E00446EBD0E2C6E2D6A2E6A2F6A306A316AAA
:10043E00A00EF26E800ED56EFE0E956EAF0EAF6EE6
:10044E00AC84FCDE83B202D0409001D0408083B4F5
:10045E0002D0409201D0408283B602D0409401D0A7
:10046E00408483B802D0409601D0408683BA02D031
:10047E00409801D0408883BC02D0409A01D0408A77
:10048E0040AA88D02C0E0C6ED30E0D6E0D2EFED7FC
:10049E000C2EFCD700000000B40E1A6E000E1B6E60
:1004AE00434A442A40A001D014D0800E4418006E56
:1004BE00800E005C02E1000E435C0BE3800E006ECA
:1004CE00800E4418005C02E14350B40802E343C0BE
:1004DE002DF040A201D015D0800E4418006E800E73
:1004EE00005C02E10A0E435C0CE3800E006E800E8F
:1004FE004418005C02E14350BE0803E30A0E435C5D
:10050E002E6E40A401D015D0800E4418006E800EC1
:10051E00005C02E1140E435C0CE3800E006E800E54
:10052E004418005C02E14350C80803E3140E435C18
:10053E002F6E40A601D015D0800E4418006E800E8E
:10054E00005C02E11E0E435C0CE3800E006E800E1A
:10055E004418005C02E14350D20803E31E0E435CD4
:10056E00306E40A801D015D0800E4418006E800E5B
:10057E00005C02E1280E435C0CE3800E006E800EE0
:10058E004418005C02E14350DC0803E3280E435C90
:10059E00316E11D02C0E0C6ED30E0D6E0D2EFED7AD
:1005AE000C2EFCD700000000436A446A2D6A2E6AA6
:1005BE002F6A306A316A800E4418006E800E005C1D
:1005CE0002E1DC0E435C05E3DC0E436E000E446E6E
:1005DE0000D02CC045F065DE0E0E0C6E240E0D6E96
:1005EE000D2EFED70C2EFCD7000000002DC045F0BE
:1005FE0058DE0E0E0C6E240E0D6E0D2EFED70C2E2A
:10060E00FCD7000000002EC045F04BDE0E0E0C6E27
:10061E00240E0D6E0D2EFED70C2EFCD70000000002
:10062E002FC045F03EDE0E0E0C6E240E0D6E0D2EFE
:10063E00FED70C2EFCD70000000030C045F031DE96
:10064E000E0E0C6E240E0D6E0D2EFED70C2EFCD73C
:10065E000000000031C045F024DE0E0E0C6E240E9C
:10066E000D6E0D2EFED70C2EFCD70000000040BAEA
:10067E0010D0090E0B6E900E0C6E870E0D6E0D2E99
:10068E00FED70C2EFCD70B2EFAD7500E1A6E000E7C
:06069E001B6ED8D6FFD749
:020000040030CA
:0E000000000C1F1EFF8381FF0FC00FE00F409A
:00000001FF
